:063B3500256600202000BF
:0C3A1900420038000044003200000000B1
:10211000123A727B367D007F051237DA7B277D0B02
:102120007F001237DA122D1B1237191231CF9000AF
:1021300046E0FEA3E0FFD3EF940FEE648094A75037
:1021400074900046E0FEA3E0FF7C037DE8121E9D34
:10215000EF25E0FB7D007F001230647B147D007F63
:1021600010123064900046E0FEA3E0FF7C007D6426
:10217000121E9D7C007D0A121E9DAF05EF25E0FB1F
:102180007D007F20123064900046E0FEA3E0FF7CDB
:10219000007D0A121E9D7C007D0A121E9DAF05EF78
:1021A00025E0FB7D007F301230647B187D007F408E
:1021B0001230648072900046E0FEA3E0FF7C277D31
:1021C00010121E9DEF25E0FB7D007F001230649011
:1021D0000046E0FEA3E0FF7C037DE8121E9D7C002C
:1021E0007D0A121E9DAF05EF25E0FB7D007F1012DA
:1021F00030647B147D007F20123064900046E0FE46
:10220000A3E0FF7C037DE8121E9D7C007D0A121E68
:102210009DAF05EF25E0FB7D007F301230647B1819
:102220007D007F401230647B017A00793AC003C0A0
:1022300002C0017BFF7A3B7935900005EBF0A3EA01
:10224000F0A3E9F07F007E007D427C42900042E0F6
:10225000F8A3E0F9A3E0FAA3E0FB12193690000816
:10226000122038D001D002D0031226A390003AE009
:10227000FF7E00D3EF9400EE64809480407890005D
:102280003BE0FFEF642E706E90003AE0FFEF24D049
:10229000FFEF25E0FB7D047F001230647B147D049A
:1022A0007F1012306490003CE0FFEF24D0FFEF2558
:1022B000E0FB7D047F2012306490003DE0FFEF24BE
:1022C000D0FFEF25E0FB7D047F3012306490003EAC
:1022D000E0FFEF24D0FFEF25E0FB7D047F401230CC
:1022E000647B1A7D047F501230647B1C7D047F6008
:1022F00012306402212B90003AE0FF7E00D3EF946D
:1023000000EE64809480407890003CE0FFEF642E03
:10231000706E90003AE0FFEF24D0FFEF25E0FB7DE8
:10232000047F0012306490003BE0FFEF24D0FFEF09
:1023300025E0FB7D047F101230647B147D047F2038
:1023400012306490003DE0FFEF24D0FFEF25E0FB6A
:102350007D047F3012306490003EE0FFEF24D0FF18
:10236000EF25E0FB7D047F401230647B1A7D047F03
:10237000501230647B1C7D047F6012306402212B7C
:1023800090003AE0FF7E00D3EF9400EE64809480EA
:10239000407890003DE0FFEF642E706E90003AE0D0
:1023A000FFEF24D0FFEF25E0FB7D047F00123064B7
:1023B00090003BE0FFEF24D0FFEF25E0FB7D047FA2
:1023C0001012306490003CE0FFEF24D0FFEF25E0D6
:1023D000FB7D047F201230647B147D047F3012303B
:1023E0006490003EE0FFEF24D0FFEF25E0FB7D048A
:1023F0007F401230647B1A7D047F501230647B1C56
:102400007D047F6012306402212B90003AE0FF7E51
:1024100000D3EF9400EE64809480407C90003EE016
:10242000FFEF642E707290003AE0FFEF24D0FFEFD0
:1024300025E0FB7D047F001230647B147D047F1057
:1024400012306490003CE0FFEF24D0FFEF25E0FB6A
:102450007D047F2012306490003CE0FFEF24D0FF29
:10246000EF25E0FB7D047F3012306490003CE0FFFC
:10247000EF24D0FFEF25E0FB7D047F401230647B2A
:102480001C7D047F501230647BFF7A3B79387D04D9
:102490007F601233A302212B90003AE0FF7E00EF11
:1024A0004E707890003BE0FFEF642E706E90003C21
:1024B000E0FFEF24D0FFEF25E0FB7D047F0012302A
:1024C0006490003DE0FFEF24D0FFEF25E0FB7D04AA
:1024D0007F1012306490003EE0FFEF24D0FFEF2524
:1024E000E0FB7D047F201230647B147D047F30127A
:1024F0003064900040E0FFEF24D0FFEF25E0FB7D4B
:10250000047F401230647B1E7D047F501230647B58
:102510001C7D047F6012306402212B90003AE0FFA2
:102520007E00EF4E60030225AC90003BE0FFEF64BD
:102530002E707990003CE0FF7E00EF4E706E9000B0
:102540003DE0FFEF24D0FFEF25E0FB7D047F00128C
:10255000306490003EE0FFEF24D0FFEF25E0FB7DEC
:10256000047F101230647B147D047F20123064904D
:102570000040E0FFEF24D0FFEF25E0FB7D047F303B
:10258000123064900041E0FFEF24D0FFEF25E0FB24
:102590007D047F401230647B1E7D047F50123064C6
:1025A0007B1C7D047F6012306402212B90003AE096
:1025B000FF7E00EF4E600302212B90003BE0FFEF17
:1025C000642E600302212B90003CE0FF7E00EF4E62
:1025D000600302212B90003DE0FF7E00EF4E600380
:1025E00002212B90003EE0FFEF24D0FFEF25E0FB1F
:1025F0007D047F001230647B147D047F10123064F0
:10260000900040E0FFEF24D0FFEF25E0FB7D047F4A
:1026100020123064900041E0FFEF24D0FFEF25E06E
:10262000FB7D047F301230647B1E7D047F401230BE
:0E263000647B1C7D047F5012306402212B223B
:1038C30090008612203853B1BF53B2BF53B17F5318
:1038D300B27F759850438920438780438E1053C429
:1038E300DF900086E0F8A3E0F9A3E0FAA3E0FB7F12
:1038F300407E427D0F7C00121F74EF04FFEFF4043F
:07390300F58DD28ED299224E
:10326E0090008A12203853B1BF53B2BF53B17F536F
:10327E00B27F75985043878053C4F843C4209000A2
:10328E008AE0F8A3E0F9A3E0FAA3E0FB7F407E42D8
:10329E007D0F7C00121F74A804A905AA06AB07C3F4
:1032AE0074FF9BFF74FF9AFEE499FDE498FC780886
:1032BE001220258FC690008AE0F8A3E0F9A3E0FA69
:1032CE00A3E0FB7F407E427D0F7C00121F74A8049A
:1032DE00A905AA06AB07C374FF9BFF74FF9AFEE411
:1032EE0099FDE498FCEF54FFFFEE5400FEED540000
:0D32FE00FDEC5400FC8FC543C408D299229A
:103B02003098FD9000BAE599F0C2989000BAE0FFB3
:013B12002290
:103ADE009000BBEFF0C2999000BBE0FF8F99309938
:023AEE00FD22B7
:10330B0090008E12203853B1FB53B2FB53B3BF5313
:10331B00B4BF75F85075C40853C4DF90008EE0F845
:10332B00A3E0F9A3E0FAA3E0FB7F407E427D0F7C94
:10333B0000121F74A804A905AA06AB07C374FF9B50
:10334B00FF74FF9AFEE499FDE498FC78081220259F
:10335B008FC690008EE0F8A3E0F9A3E0FAA3E0FBA0
:10336B007F407E427D0F7C00121F74A804A905AA22
:10337B0006AB07C374FF9BFF74FF9AFEE499FDE451
:10338B0098FCEF54FFFFEE5400FEED5400FDEC549F
:08339B0000FC8FC543C40822A9
:103B130030F8FD9000BCE59AF0C2F89000BCE0FFDD
:013B2300227F
:103AF0009000BDEFF0C2F99000BDE0FF8F9A30F961
:023B0000FD22A4
:1035F300900092122038538EF7438901D28C7F00BA
:103603007E007D007C00900092E0F8A3E0F9A3E047
:10361300FAA3E0FBC31220146035758A7E758CFF14
:10362300308DFDC28D900092E0FCA3E0FDA3E0FE8F
:10363300A3E0FF7BFF7AFF79FF78FFEF2BFFEE3AE2
:10364300FEED39FDEC38FC90009212203880AFC2B9
:023653008C22C7
:10365500900096122038538EF7438901D28C7F0053
:103665007E007D007C00900096E0F8A3E0F9A3E0E1
:10367500FAA3E0FBC31220146035758ACA758CFA6B
:10368500308DFDC28D900096E0FCA3E0FDA3E0FE29
:10369500A3E0FF7BFF7AFF79FF78FFEF2BFFEE3A80
:1036A500FEED39FDEC38FC90009612203880AFC253
:0236B5008C2265
:1036B70090009A122038538EEF438910D28E7F00E4
:1036C7007E007D007C0090009AE0F8A3E0F9A3E07B
:1036D700FAA3E0FBC31220146035758BEA758DCB16
:1036E700308FFDC28F90009AE0FCA3E0FDA3E0FEBF
:1036F700A3E0FF7BFF7AFF79FF78FFEF2BFFEE3A1E
:10370700FEED39FDEC38FC90009A12203880AFC2EC
:023717008E2200
:10358E0090009E12203853C9BF53C9DF43C910D2D1
:10359E00CA7F007E007D007C0090009EE0F8A3E0D4
:1035AE00F9A3E0FAA3E0FBC3122014603575CC300A
:1035BE0075CDF830CFFDC2CF90009EE0FCA3E0FDAC
:1035CE00A3E0FEA3E0FF7BFF7AFF79FF78FFEF2BEE
:1035DE00FFEE3AFEED39FDEC38FC90009E122038DD
:0535EE0080AFC2CA22FB
:1034B6009000A212203875C40743C4087F007E001E
:1034C6007D007C009000A2E0F8A3E0F9A3E0FAA357
:1034D600E0FBC3122014604075C52C75C6CFE5C449
:1034E6005410FF7E00EF64104E70F353C4EF90004B
:1034F600A2E0FCA3E0FDA3E0FEA3E0FF7BFF7AFFD2
:1035060079FF78FFEF2BFFEE3AFEED39FDEC38FC44
:0C3516009000A212203880A453C4F722B9
:103522009000A612203875C40243C4087F007E00B2
:103532007D007C009000A6E0F8A3E0F9A3E0FAA3E6
:10354200E0FBC3122014604075C5D875C6FFE5C400
:103552005410FF7E00EF64104E70F353C4EF9000DE
:10356200A6E0FCA3E0FDA3E0FEA3E0FF7BFF7AFF61
:1035720079FF78FFEF2BFFEE3AFEED39FDEC38FCD8
:0C3582009000A612203880A453C4F72249
:103B24009000BE7414F09000BEE0FF14F0EF70F645
:013B3400226E
:103A720053B3F743B40853B3EF43B41075BE02D245
:063A8200C6D294D293228B
:1039C300D294123B24209403123B24209403123BF1
:1039D30024209403123B24D293123B24209402C349
:0F39E30022C294123B24309402C322C293D322F7
:10398A00C294123B24C293123B24D293123B24D2F8
:10399A009420940AC293123B24D293123B2420947B
:1039AA000AC293123B24D293123B2420940AC29354
:0939BA00123B24D293123B24229B
:103AB400C294123B24C293123B24D293123B24C2DD
:053AC40093123B2422D7
:103AC900D294123B24C293123B24D293123B24C2B8
:053AD90093123B2422C2
:103A5800C293123B24D294123B24D293123B2430BB
:0A3A68009404C293C322C293D32238
:05394C009000B0EFF057
:103951009000B17408F09000B1E0FF14F0EF602620
:10396100C293123B249000B0E0FFEF339294900099
:10397100B0E0FFEF25E0FF9000B0EFF0123B24D262
:0839810093123B2480D0C29395
:01398900221B
:103879009000B27408F09000B3E4F0D2949000B2D2
:10388900E0FF14F0EF602B9000B3E0FFEF25E0FFBD
:103899009000B3EFF0C293123B24D293123B243031
:1038A90094DB9000B3E0FFEF4401FF9000B3EFF029
:0938B90080CBC2939000B3E0FF44
:0138C20022E3
:103A25004E0042000000000000000000003F7CCC7A
:033A3500CDC10BF5
:0A342D009000B4EFF09000B5EDF050
:103437001239C39000B4E0FF12394C123A584006D3
:10344700E47E007F00229000B5E0FF12394C123A6B
:10345700584006E47E007F00221239C39000B4E092
:10346700FFEF04FF12394C123A584006E47E007F02
:1034770000221238797E007800EEF208EFF2780029
:10348700E2FE08E2FFEF7F00FE7800EEF208EFF2BF
:10349700123AB41238797E007801E22FF218E23E30
:0E34A700F2123AC912398A7800E2FE08E2FFFA
:0134B50022F4
:1037DA009000AAEFF09000ABEDF09000ACEBF01285
:1037EA0039C37F8012394C123A584002C3229000E2
:1037FA00AAE0FF12394C123A584002C3229000AB99
:10380A00E0FF12394C123A584002C3229000ACE051
:10381A00FF12394C123A584002C32212398AD32273
:1031CF007D047F8012342D900048EEF0A3EFF07D48
:1031DF00027F8012342DAC06AD07E4121A417B003A
:1031EF007A0079A0783F121936121A7A90004AEEB7
:1031FF00F0A3EFF0200B34900048E0FCA3E0FDECCF
:10320F00121A4190004CE0F8A3E0F9A3E0FAA3E012
:10321F00FB12193690004212203890004AE0FEA3AC
:10322F00E0FF900046EEF0A3EFF022900048E0FCA4
:10323F00A3E0FDEC121A4190004CE0F8A3E0F9A3D3
:10324F00E0FAA3E0FB1219369000421220389000EA
:0F325F004AE0FEA3E0FF900046EEF0A3EFF0225E
:1010000000000000000000000000000000000000E0
:101010000000000000000000000000800000000050
:1010200000000000FCF80800000000000000800044
:1010300000000000000000000000000000000000B0
:101040000000000000000000000000FFFF414141DF
:1010500041414141FFFF4141414141414141FFFF88
:101060000000000000000000000000000000000080
:101070000000000000000000000000FFFF20202012
:1010800020202020FFFF20202020202020207F7FE4
:1010900000008000000000000000000000000000D0
:1010A0000000000000000000000000000000000040
:1010B000000000001F3F30303030303030303030F2
:1010C00030383F1000000000000000000000000069
:1010D000000000000000000000000000F0F0101010
:1010E000101010101010D090901010101010101838
:1010F0001C181000000000000000000000000000AC
:10110000000000000000000000000000FFFF008061
:10111000808080808080FFFF818080808080C0C050
:10112000800000000000000000000000000000003F
:101130000000000000000000000000F0FF010000BF
:10114000000000000000FFFF000000081870E0C071
:10115000000000000000000000000000000000008F
:10116000000000000000004020180E1310101010A6
:101170001010101010101F1F10101010101013134B
:10118000101818100000000000000000000000000F
:1011900000000000000000000000001060E0C0003F
:1011A000004040404040404CF87840404040404083
:1011B000606040000000000000000000000000002F
:1011C00000000000000000000830F0E00001C03026
:1011D0000C0020E070682623212120202024387074
:1011E000E00000000000000000000000000000001F
:1011F00000000000000000004040C0E0F80E0100C8
:101200000000E0FF02000001FE02000000FFFE00FF
:1012100000000000000000000000000000000000CE
:10122000000000000000000000003C3F01402020C2
:10123000180C0701000000403F000000003F37206D
:1012400020203F38100000000000000000000000D7
:10125000000000000000000000000080C04040408E
:101260008000000000000000F0FE0F010000000000
:101270000107FEF0000000003FFFC000000000007A
:101280000080FF3F00000000000103060C08080872
:101290000603010000000000000000000000000044
:1012A000000000000000000000000000000000003E
:1012B0000000000000000000000000000080C000EE
:1012C00000000000000000000001010101FFFF001C
:1012D00000000000000000000000000000FFFF0010
:1012E0000000000000000000000808080C0F0F0CB0
:1012F00008080800000000000000000000000000D6
:1013000000000000000000000000000000000000DD
:10131000000000000000000000008040404040400D
:10132000C0808000000000001E19000000000000C6
:1013300000C1FF3E000000000000804030180C0695
:10134000030100C0000000000E0D0C0C0C0C0C0C76
:101350000C0C0E0300000000000000000000000064
:10136000000000000000000000000000000000007D
:10137000000000000000000000808040404040C0AD
:1013800080000000000000000F0F0000000000803F
:10139000C17F3E0000000000C0C000000101010349
:1013A0000206FCF000000000030704080808080813
:1013B0000406030000000000000000000000000020
:1013C000000000000000000000000000000000001D
:1013D000000000000000000000000000000000C04D
:1013E000C00000000000000000008060100C03FF3F
:1013F000FF000000000000302C262120202020FFCC
:10140000FF20202000000000000000000808080F56
:101410000F080808000000000000000000000000A5
:1014200000000000000000000000000000000000BC
:1014300000000000000000000000C0C0C0C0C0C02C
:10144000C0C0C0C00000000000FF0080404040401D
:10145000C080000000000000C0C3010000000000C8
:101460000001FFFC0000000003040408080808084D
:10147000040703000000000000000000000000005E
:10148000000000000000000000000000000000005C
:10149000000000000000000000000080804040408C
:1014A0004080800000000000E0FC0781C040404018
:1014B000C0830300000000007FFF830000000000E5
:1014C0000001FFFC00000000000107060C080808EE
:1014D0000C060300000000000000000000000000F7
:1014E00000000000000000000000000000000000FC
:1014F000000000000000000000C0C0C0C0C0C0C0AC
:10150000C0C0C0C0000000000E030000000000E0EA
:10151000180601000000000000000000C0FC0300ED
:101520000000000000000000000000000F0F00009D
:1015300000000000000000000000000000000000AB
:10154000000000000000000000000000000000009B
:101550000000000000000000000080C0404040404B
:10156000C0800000000000003E7FF1C0C08000008D
:1015700080417F1E000000F0FC0E02010101030704
:101580000E1EFCF00000000103060408080808080D
:10159000040603010000000000000000000000003D
:1015A000000000000000000000000000000000003B
:1015B00000000000000000000080804040404040EB
:1015C00080000000000000FCFF030000000000009D
:1015D0000003FEF80000000103070C0808080804D7
:1015E00006E17F1F000000000707080808080C0636
:1015F00003010000000000000000000000000000E7
:1016000000000000000000000000000000000000DA
:1016100000000000000000000000000000000000CA
:1016200000000000000000000000000000000000BA
:1016300000000000000000000000000000000000AA
:101640000000000000000000060F0F060000000070
:10165000000000000000000000000000000000008A
:10166000000000000000000000000000000000007A
:10167000000000000000000000000000000000006A
:10168000000000000000000000000000000000005A
:10169000000000000000000000000000000000004A
:1016A000000000000000000000000000000000003A
:1016B000000000000000000000000000000000002A
:1016C000000000000000000000000000000000001A
:1016D000000000000000004040C0C04000000000CA
:1016E0000040C0C0400000000007FFF800000000FC
:1016F00080780700000000000000000FFFF08078F5
:10170000070000000000000000000000000F0300C0
:1017100000000000000000000000000000000000C9
:1017200000000000000000000000000000000000B9
:1017300000000000000000000000000000000000A9
:1017400000000000000020E0F040202020E0C04029
:10175000202020E0C00000FFFF00000000FFFF008D
:10176000000000FFFF00080F0F080000080F0F081F
:101770000000080F0F08000000000000000000003B
:101780000000000000000000000000000000000059
:10179000000000000000000000000000C0C0C00009
:1017A00000000000000000000000C07C03033FFCBC
:1017B0008000000000000000807C0F080808080B73
:1017C0007FF880000000080C0F08080000000000EF
:1017D000080F0F0C080000000000000000000000CF
:1017E00000000000000000000000000000000000F9
:1017F00000000000000000000000000000000000E9
:10180000000000000000002020E0F00000000020A8
:1018100020E0F0000000000000FFFF0000000000DA
:1018200000FFFF00000000000003070C0808080488
:10183000020F070404000000000000000000000088
:101840000000000000000000000000000000000098
:1018500000000000000040C0C040000040C0C04088
:10186000000040C0C0400001FFF8000000F3FFF896
:101870000000C03F00000000003FFCE01E0101FF2F
:10188000FCF00F000000000000000F03000000004B
:101890000F01000000000000000000000000000038
:1018A0000000000000000000000000000000000038
:1018B0000000000000000000000000000000000028
:1018C000000000000000000000000000C0E0E0C0D8
:1018D0000000000000000000000000000001010006
:1018E000000000000000000000000000060F0F06CE
:1018F00000000000000000000000000000000000E8
:1019000000000000000000000000000000000000D7
:1019100000000000000000000000000000000000C7
:1019200000000000000000000000000000000000B7
:06193000000000000000B1
:0A377B009000ADEFF09000AEEDF00D
:103785009000AEE0FFEF6004D2818002C281C29555
:103795009000AFE4F09000AFE0FF7E00C3EF940827
:1037A500EE648094805029C2909000ADE0FFEF3028
:1037B500E704D2808002C280D2909000ADE0FFEF96
:1037C50025E0FF9000ADEFF09000AFE004F080C57C
:0437D500D295D28136
:0137D90022CD
:10390A009000B6EFF09000B7EDF09000B7E0FFEF4F
:10391A0024B0FF7D0012377B9000B6E0FFEF54F031
:10392A00FFEFC4540FFFEF4410FF7D0012377B9066
:10393A0000B6E0FFEF540FFFEF4401FF7D0012379E
:02394A007B22DE
:103A88007D007F8D12377B7D007F1412377B7D0090
:063A98007FAF12377B2214
:103A9E007D007F8D12377B7D007F1012377B7D007E
:063AAE007FAE12377B22FF
:103719009000B8E4F09000B8E0FF7E00C3EF940891
:10372900EE64809480504A9000B8E0FFEF24B0FF27
:103739007D0012377B7D007F0012377B7D007F1073
:1037490012377B9000B9E4F09000B9E0FF7E00C326
:10375900EF9480EE64809480500F7D017F001237D2
:103769007B9000B9E004F080DF9000B8E004F080BD
:01377900A4AB
:01377A00222C
:0F2AC100900072EFF0900073EDF0900074EBF066
:102AD000900075E4F0900076E4F0900074E0FFEF71
:102AE00024E0FF900075EFF0900072E0FF7E00D3CD
:102AF000EF947FEE64809480400C900072E4F0903C
:102B00000073E02402F0900072E0FF900073E0FD9B
:102B100012390A900076E4F0900076E0FF7E00C360
:102B2000EF9408EE64809480503A900076E0FF9035
:102B30000075E0FE75F010EEA4F58285F083E58265
:102B40002FF582E43583F583E5822406F582E5835B
:102B50003410F583E493FF7D0112377B900076E01B
:102B600004F080B4900072E0FF900073E0FEEE0489
:102B7000FD12390A900076E4F0900076E0FF7E00C6
:102B8000C3EF9408EE648094804003022C229000EE
:102B900076E0FF900075E0FE75F010EEA4F58285FA
:102BA000F083E5822FF582E43583F583E582240EF8
:102BB000F582E5833410F583E493FF7D0112377BC2
:102BC000900076E004F080B122900072E0FF900067
:102BD00073E0FEEE04FD12390A900076E4F09000F6
:102BE00076E0FF7E00C3EF9406EE6480948050325E
:102BF000900076E0FF900075E0FEEE75F006A424EC
:102C000000F582E43410F583E5822FF582E4358304
:102C1000F583E493FF7D0112377B900076E004F0AA
:022C200080BC76
:012C2200228F
:0A382A00900066EFF0900067EDF0EB
:1038340090006812204400000001900067E0FF142B
:10384400F0EF6022900068E0F8A3E0F9A3E0FAA3A7
:10385400E0FB900066E0FFE4FCFDFE121EE9900030
:103864006812203880D4900068E0FCA3E0FDA3E057
:04387400FEA3E0FFD0
:01387800222D
:0A2C2300900050EFF0900051EDF02A
:102C2D0090005AE4F0900058E4F0900056E0FF90C8
:102C3D000058E0FEEEC39F4003022D1A900058E0AD
:102C4D00FF900056E0FEC3EE9FFFEF14FD7F0A12CA
:102C5D00382AA804A905AA06AB07900052E0FCA3E8
:102C6D00E0FDA3E0FEA3E0FF121F747B0A7A00795A
:102C7D00007800121F74AC00AD01AE02AF039000DE
:102C8D0059EFF090005AE0FF7E00EF4E704A900031
:102C9D0056E0FFEF14FF900058E0FEEEC39F503852
:102CAD00900059E0FF7E00EF4E7027900057E0FF37
:102CBD00EFC313FF900058E0FEEF8EF0A4FF9000DD
:102CCD0050E0FEEF2EFF900051E0FD7B20122AC157
:102CDD00803290005A7401F0900057E0FFEFC3135B
:102CED00FF900058E0FEEF8EF0A4FF900050E0FE44
:102CFD00EF2EFF900051E0FD900059E0FEEE2430E4
:0D2D0D00FB122AC1900058E004F0022C37A0
:012D1A002296
:1033A30090006CEFF090006DEDF090006EEBF0A3E9
:0533B300EAF0A3E9F0BF
:1033B800900071E4F090006EE0FBA3E0FAA3E0F95E
:1033C800900071E0FF8F82758300121E5EFFEF6030
:1033D8005390006CE0FF90006DE0FD90006EE0FB04
:1033E800A3E0FAA3E0F9900071E0FE8E82758300F5
:1033F800121E5EFB122AC190006CE02408F09000B7
:103408006CE0FF7E00D3EF9478EE64809480400CEB
:1034180090006CE4F090006DE02402F0900071E000
:0434280004F080919B
:01342C00227D
:0F2E1300900077EFF0900078EDF0900079EBF001
:102E220090007BE4F0900077E0FF900078E0FD12E4
:102E3200390A90007AE4F090007AE0FF7E00C3EF56
:102E42009410EE64809480503890007AE0FF9000F5
:102E520079E0FEEE75F040A42416F582E43419F50B
:102E620083E5822FF582E43583F583E493FF7D01C8
:102E720012377B90007BE004F090007AE004F0804F
:102E8200B6900077E0FF900078E0FEEE04FD123984
:102E92000A90007AE4F090007AE0FF7E00C3EF949B
:102EA20010EE64809480503890007AE0FF900079B0
:102EB200E0FEEE75F040A42436F582E43419F58381
:102EC200E5822FF582E43583F583E493FF7D0112D9
:102ED200377B90007BE004F090007AE004F080B64B
:012EE20022CD
:0F2EE30090005BEFF090005CEDF090005DEBF085
:102EF200900062E4F0A3E4F090005EE0FFEF54077C
:102F0200FF7E00EF4E701390005EE0FFEF1313138D
:102F1200541FFF900065EFF0801490005EE0FFEF19
:102F2200131313541FFFEF04FF900065EFF090009E
:102F32005CE0FF900065EFF090005EE0FF900065BE
:102F4200E0FEEEC39F505B90005BE0FF900065E007
:102F5200FD12390A90005BE0FF900064EFF09000F0
:102F62005DE0FF900064E0FEEEC39F502D90005F95
:102F7200E0FBA3E0FAA3E0F9900062E475F001122D
:102F82001ED3AFF0FE8F828E83121E5EFF7D011272
:102F9200377B900064E004F080C4900065E004F0A8
:022FA200809617
:012FA400220A
:0F2FA50090007CEFF090007DEDF090007EEBF05F
:102FB40090007FE4F0900080E4F090007CE0FF90CB
:102FC400007DE0FD12390A900080E4F0900080E07A
:102FD400FF7E00C3EF9404EE6480948040030230CB
:102FE4006390007CE0FF900080E0FE90007DE0FDB7
:102FF400ED2EFD12390A90007FE4F090007FE0FF8F
:103004007E00C3EF9430EE64809480504990008039
:10301400E0FF7E30EF8EF0A4FFAEF090007FE0FD85
:103024007C00EF2DFFEE3CFE90007EE0FD75F0305D
:10303400EDA42416F582E5F03410F583E5822FF52E
:1030440082E5833EF583E493FF7D0112377B900094
:0F3054007FE004F080A5900080E004F0022FD010
:01306300224A
:0F306400900081EFF0900082EDF0900083EBF090
:10307300900084E4F0900085E4F0900081E0FF90FC
:103083000082E0FD12390A900085E4F0900085E0AB
:10309300FF7E00C3EF9404EE64809480400302310A
:1030A30022900081E0FF900085E0FE900082E0FD29
:1030B300ED2EFD12390A900084E4F0900084E0FFC5
:1030C3007E00C3EF9410EE64809480504990008595
:1030D300E0FF7E10EF8EF0A4FFAEF0900084E0FDE1
:1030E3007C00EF2DFFEE3CFE900083E0FD75F03099
:1030F300EDA42456F582E5F03412F583E5822FF52D
:1031030082E5833EF583E493FF7D0112377B9000D4
:0F31130084E004F080A5900085E004F002308F86
:01312200228A
:103A390053B1FE43B20153B1FD43B20253B1F7434F
:0F3A4900B20853B3FE43B40153B3DF43B420229A
:102D1B00123A39D2837FF47E017D007C0012365546
:102D2B00C2837FF47E017D007C00123655D2837DF9
:102D3B00007FAE12377B7D007F0012377B7D007FDB
:102D4B001012377B7D007F4012377B7D007F811215
:102D5B00377B7D007FCF12377B7D007FA112377BC6
:102D6B007D007FC812377B7D007FA612377B7D00ED
:102D7B007FA812377B7D007F3F12377B7D007FD38F
:102D8B0012377B7D007F0012377B7D007FD512379A
:102D9B007B7D007F8012377B7D007FD912377B7D57
:102DAB00007FF112377B7D007FDA12377B7D007F4E
:102DBB001212377B7D007FDB12377B7D007F401249
:102DCB00377B7D007F2012377B7D007F0212377BA4
:102DDB007D007F8D12377B7D007F1412377B7D004A
:102DEB007FA412377B7D007FA612377B7D007FAFE0
:102DFB0012377B7D007FAF12377B1237197D007F37
:082E0B000012390A12371922E6
:03000000023123A7
:1031230075C7AA75C75575FD5A75C7AA75C755756D
:10313300FDA5787FE4F6D8FD9000007FFF7E03E4D1
:0C314300F0A3DFFCDEFA75812102318A66
:10193600EC4D6011E8497017ED33EC3304600DE4AB
:10194600FCFFFEFD22E933E8330470F8021AE612C2
:101956001AB158046009E4CC2481500628500902C3
:101966001AF0284003021AEDC0E0EB4A7044B98031
:1019760006D0E0FB021ADCEF4E701CBD8008EBFFC0
:10198600EAFEE9FD80EBE98DF0A4FEE5F0021A1F00
:10199600E9CDF9EAFEEBFFEF89F0A4FCE5F0CE898C
:1019A600F0A42EFFE435F0CD89F0A42DFEE435F049
:1019B6008067EF4E7005BD80D780C3EF8BF0A4AC77
:1019C600F0EE8BF0A42CFCE435F0F8EF8AF0A42CB2
:1019D600E5F038FCE433CB8DF0A42CFCE5F03BF8C5
:1019E600EE8AF0A42CFCE5F038F8E433CF89F0A4B5
:1019F6002CFCE5F038CF3400CE89F0A42FFFE5F0BB
:101A06003EFEE433C98DF0A42EFEE5F039CD8AF012
:101A1600A42FFFE5F03EFEE43DFD33D0E0FB50078A
:101A26000BBB000F021AF0EC2CFCEF33FFEE33FE7B
:061A3600ED33FD021AC8A9
:101A3C0075F020800E75F010800575F0087D007E25
:101A4C00007F003392D530D503122006EC334010C2
:101A5C00EF33FFEE33FEED33FDEC33FCD5F0ED222E
:0E1A6C00E5F0247EA2D513CC92E7CDCEFF226A
:101A7A00EDD2E7CD33EC3392D524814006E4FFFE64
:101A8A00FDFC22FCE4CFCECDCC24E0501174FF80C3
:101A9A00EDC3CC13CCCD13CDCE13CECF13CF047060
:071AAA00F030D5DE0220063A
:10263E00E5082405F582E43400F583E005082290D0
:10264E000002300703900005E475F00112207502B8
:10265E001E452000E97F2ED2008018EF540F2490E3
:10266E00D43440D4FF30040BEF24BFB41A0050030F
:10267E002461FFE50960021509050CE50C700205E1
:10268E000B30070E900002E475F001122075EF0278
:10269E001E8B0239F27403D2078003E4C207F508D9
:1026AE0090000212208CE4F509F50BF50CE509609B
:1026BE00077F2012268180F5750AFFC201C200C273
:1026CE0002C203C205C206C20812264DFF700D30AB
:1026DE0007057F00122692AF0CAE0B22B4255FC207
:1026EE00D5C20412264DFF24D0B40A00501A75F03C
:1026FE000A780930D50508B6FF0106C6A426F620CD
:10270E00D5047002D20380D924CFB41A00EF50043E
:10271E00C2E5D204022984D20180C6D20080C0D282
:10272E000280BCD2D580BAD20580B47F2012268119
:10273E002002077401B5090040F112263EFF122651
:10274E00810226BBD208D206809512263EFB1226A7
:10275E003EFA12263EF94A4B700679827A2A7BFFA0
:10276E0020022EE509602A7E008E82758300121EDD
:10277E005E60060EEE650A70F0C2D5EBC0E0EAC0F0
:10278E00E0E9C0E0EE1229E5D0E0F9D0E0FAD0E0C1
:10279E00FB121E45FF60AAEBC0E0EAC0E0E9C0E014
:1027AE00122681D0E02401F9D0E03400FAD0E0FB0B
:1027BE00E50A0460DCD50AD98087D20280A21229EC
:1027CE00C760F7E50A700104121AFBA90A600DE54D
:1027DE000A600914F50A122A6FEF60F3EA30E70275
:1027EE00F404C3995079EAF4250A0430E701E404AD
:1027FE00F50A800D1229C760C1EA050A250A121AC8
:10280E00FBEA900031F030E701E4250A04D50A0412
:10281E00200501141229E5E4C0E0122A6F90003160
:10282E00E0601320E70714F0122669802204F0D02E
:10283E00E014C0E07F00122669E50A6007122660E8
:10284E00150A800B300503122660D0E00226BBD09D
:10285E00E00480C41229C7609EE50A04121AFB9098
:10286E000031EAF0E50A2005026001042404122971
:01287E00E574
:10287F0074FF04C0E0122A6F122669E50A200502D0
:10288F006003122660D0E0B50AE87F4512267390E8
:10289F000031E07F2B30E7047F2DF404C0E01226D7
:1028AF0081D0E075F00A84C0F012266AD0E01226BB
:1028BF006A0226BB791080027908C206C208800816
:1028CF00D2D5790A8004790AC2D5E50A047002F5D7
:1028DF000AE4FAFDFEFF12263EFC7B0820011312CC
:1028EF00263EFD7B1030000A12263EFE12263EFFCA
:1028FF007B20EC3382D592D55013C3E43000069F72
:10290F00FFE49EFEE42001039DFDE49CFCE4CBF874
:10291F00C201EC700CCFCECDCCE824F8F870F38068
:10292F0017C3EF33FFEE33FEED33FDEC33FCEB3328
:10293F00FB994002FB0FD8E9EB300105F8D0E0C45A
:10294F0048B201C0E00AEC4D4E4F78207B0070C2B8
:10295F00EAB50A0040BCC0E01229E7D0F0D0E02071
:10296F000104C4C0E0C4B201C0F012266AD0F0D591
:10297F00F0EB0226BB12209527585328C35827295E
:10298F004C27254228C74F28CF4428CF49273E43FD
:10299F0028D55528024628624527CC472AA250271A
:1029AF002D2D27312E27542B2735232752202A8BC5
:1029BF002A26ED480000274CE50AB4FF03750A06E6
:1029CF0012263EFC12263EFD12263EFE12263EFF2A
:1029DF0090002A021B38790AA2D52003143005096A
:1029EF00B910020404B9080104A2D520060250014F
:1029FF00042002689202B509005034C0E07F2030F5
:102A0F0003197F30A20272067205500F122A3EC2BE
:102A1F0002C206C205C2087F30800F300503E9C02D
:102A2F00E0122681300503D0E0F9D0E0B509CC30B3
:102A3F0005177F30B9100C1226817F583004077F9D
:102A4F00788003B908031226813002057F2D0226F4
:102A5F00817F202008F87F2B2006F322920280CF5F
:102A6F007F00B40700500B242AF582E43400F5836D
:102A7F00E0FF22286E756C6C2900D20112263E30C1
:102A8F0001F8C201780930D50108F60226ED2D5064
:102A9F0043495812263E2403B405004001E4902A0E
:102AAF009D93122672743A122672D203750904028C
:022ABF0028C32A
:101AB100E9D2E7C933E833F892D5EDD2E7CD33EC7B
:071AC10033FC5002B2D522F4
:101AC800EC30E7100FBF000C0EBE00080DBD00047F
:101AD8000BEB6014A2D5EB13FCED92E7FD2274FF2B
:101AE800FCFDFEFF22E480F8A2D574FF13FC7D8084
:031AF800E480EF98
:101AFB00F920E73624F950037907E4F42402FBE5D7
:101B0B0082158270021583DBF6E024FB501BE96023
:101B1B0014E4F0E582158270021583E004F0B40A38
:0D1B2B0008E4F0D9EE7401F00A22C2D522C0
:101B3800ED33EC3392D5FA602AB4FF33EDC2E77B7C
:101B4800FF60067A1B795DE4227A1B796620D5044A
:101B58007A1B7961224E614E002B494E46002D4971
:101B68004E4600E47A08F0A3DAFC7B00740722C032
:101B780083C082ECC0E0EDC0E0EEC0E0EFC0E0EA78
:101B880075F010A4CAABF075F04DA42BFBE435F04A
:101B9800FCEA2410FAEB34C5FBEC34D9FCEDC2E7BF
:101BA800FF75F056A4F42411C5F0F434C58FF0A4E1
:101BB8002AE5F03BE43CF020E714121E05D0E0FFD4
:101BC800D0E0FED0E0FDD0E0FC121D388014F40413
:101BD800121E05D0E0FFD0E0FED0E0FDD0E0FC1200
:101BE8001936D082D083E0FAEDD2E7CD33EC332436
:101BF80082FBE4C3CF33CFCE33CECD33CD33DBF34B
:101C08007B0775F00A846004F0A31B0AE5F0F0A3D3
:101C18008FF0740AA4FFACF08EF0740AA42CFEAC0A
:101C2800F050010C8DF0740AA42CFDE435F0F0A3FB
:051C3800DBDE74072251
:101C3D00021AE6E86480F8E933E83360110460F0D5
:101C4D00ED33EC337009E8FCE9FDEAFEEBFF22040D
:101C5D0060DED3EB9FEA9EE99DE8C2E78CF0C2F708
:101C6D0095F0400CE8CCF8E9CDF9EACEFAEBCFFBD4
:101C7D00121AB185D0F05804700320D5B3E8047062
:101C8D00075002B2D5021AF092D5EC0460F7E4CCFD
:101C9D00C0E0C398F8603B94186008400DD0E0FB9D
:101CAD00021AC8E4FBFAC9FC8028E830E406E4C94E
:101CBD00FBE4CAFCE830E305E4C9CACBFCE85407F1
:101CCD006010F8C3E913F9EA13FAEB13FBEC13FCFC
:101CDD00D8F130F52FC3E49CFCEF9BFFEE9AFEED9F
:101CED0099FDD0E0FBEF4E4D4C701222DB03021A32
:101CFD00EDEC2CFCEF33FFEE33FEED33FDED30E775
:101D0D00EB021AC8EF2BFFEE3AFEED39FDD0E0FBEA
:101D1D0050130BBB0003021AF0ED13FDEE13FEEF93
:081D2D0013FFEC13FC021AC8BD
:101D3500021AF0EC5D046005E859047003021AE626
:101D4500121AB1580460F6EC4860F2EC7004FDFE1E
:101D5500FF22C860DB2481C85009C3986002500681
:101D6500021AED9850CAF582E9294B4A7005AB82F3
:101D7500021ADC75F0007C1A7880C3EF9BEE9AEDB1
:101D850099400DC3EF9BFFEE9AFEED99FDE842F0F9
:101D9500DC23ACF0D0E0FFD0E0FED0E0FDAB82204C
:101DA500E7101BEB60BAEC2CFCEF33FFEE33FEEDD6
:101DB50033FD021AC8E803F830E705C0F075F000F6
:101DC500EF2FFFEE33FEED33FD40B830E7C280AABA
:101DD5003F8000004120000042C80000447A000016
:101DE500461C400047C35000497424004B18968098
:101DF5004CBEBC205A0E1BCA6753C21C749DC5AE8F
:101E0500FB60065407601C2323121E33EB54386015
:101E150009121E1F121E2E121936ECF8EDF9EEFAF4
:101E2500EFCB22EB121E2E80F1543803241C901D9B
:101E3500D5FE93FC0EEE93FD0EEE930ECE93FF2290
:10314F00022110E493A3F8E493A34003F68001F265
:10315F0008DFF48029E493A3F85407240CC8C33381
:10316F00C4540F4420C8834004F456800146F6DF50
:10317F00E4800B0102040810204080903A19E47E8D
:10318F00019360BCA3FF543F30E509541FFEE49345
:10319F00A360010ECF54C025E060A840B8E493A30C
:1031AF00FAE493A3F8E493A3C8C582C8CAC583CA37
:1031BF00F0A3C8C582C8CAC583CADFE9DEE780BEEF
:013A3800008D
:101E4500BB010689828A83E0225002E722BBFE029B
:091E5500E32289828A83E49322CE
:101E5E00BB010CE58229F582E5833AF583E0225039
:101E6E0006E92582F8E622BBFE06E92582F8E22283
:0D1E7E00E58229F582E5833AF583E493229D
:101E8B00BB010689828A83F0225002F722BBFE0136
:021E9B00F32230
:101E9D00C2D5EC30E709B2D5E4C39DFDE49CFCEE60
:101EAD0030E715B2D5E4C39FFFE49EFE1220BBC3FD
:101EBD00E49DFDE49CFC80031220BB30D507C3E4F8
:061ECD009FFFE49EFE22CF
:101ED300A3F8E0C5F025F0F0E582158270021583C2
:061EE300E0C838F0E8221F
:101EE900E88FF0A4CC8BF0A42CFCE98EF0A42CFC98
:101EF9008AF0EDA42CFCEA8EF0A4CDA8F08BF0A416
:101F09002DCC3825F0FDE98FF0A42CCD35F0FCEB74
:101F19008EF0A4FEA9F0EB8FF0A4CFC5F02ECD3939
:0F1F2900FEE43CFCEAA42DCE35F0FDE43CFC22A6
:101F380075F008758200EF2FFFEE33FECD33CDCC60
:101F480033CCC58233C5829BED9AEC99E5829840E3
:101F58000CF582EE9BFEED9AFDEC99FC0FD5F0D6C0
:101F6800E4CEFBE4CDFAE4CCF9A88222B800C1B9EA
:101F78000059BA002DEC8BF084CFCECDFCE5F0CB28
:101F8800F97818EF2FFFEE33FEED33FDEC33FCEB61
:101F980033FB10D703994004EB99FB0FD8E5E4F91C
:101FA800FA227818EF2FFFEE33FEED33FDEC33FC09
:101FB800C933C910D7059BE99A4007EC9BFCE99AFD
:101FC800F90FD8E0E4C9FAE4CCFB2275F010EF2F42
:101FD800FFEE33FEED33FDCC33CCC833C810D70742
:101FE8009BEC9AE899400AED9BFDEC9AFCE899F87D
:0E1FF8000FD5F0DAE4CDFBE4CCFAE4C8F92210
:0E200600C3E49FFFE49EFEE49DFDE49CFC22EB
:10201400EB9FF5F0EA9E42F0E99D42F0E89C45F022
:012024002299
:10202500E8600FECC313FCED13FDEE13FEEF13FF99
:03203500D8F122BD
:0C203800ECF0A3EDF0A3EEF0A3EFF0221B
:10204400A8828583F0D083D08212205B12205B1299
:10205400205B12205BE473E493A3C583C5F0C583BE
:10206400C8C582C8F0A3C583C5F0C583C8C582C8E6
:012074002249
:10207500F8E0FBA3A3E0F925F0F0E58215827002F4
:072085001583E0FA38F02298
:09208C00EBF0A3EAF0A3E9F02255
:10209500D083D082F8E4937012740193700DA3A3DA
:1020A50093F8740193F5828883E4737402936860EE
:0620B500EFA3A3A380DFEE
:1039F200EFB40A07740D1239FD740A309811A899B0
:103A0200B8130CC2983098FDA899C298B811F63034
:073A120099FDC299F599220C
:1020BB00BC000BBE0029EF8DF084FFADF022E4CC09
:1020CB00F875F008EF2FFFEE33FEEC33FCEE9DECD2
:1020DB00984005FCEE9DFE0FD5F0E9E4CEFD22ED18
:1020EB00F8F5F0EE8420D21CFEADF075F008EF2F62
:1020FB00FFED33FD4007985006D5F0F222C398FD53
:05210B000FD5F0EA22EF
:00000001FF
