:020000040800F2
:100000000050002041150008091300080B130008D8
:100010000D1300080F130008111300080000000062
:10002000000000000000000000000000213800086F
:100030001313000800000000C1380008053900084B
:100040008915000889150008891500088915000818
:100050008915000889150008891500088915000808
:1000600089150008891500088915000889150008F8
:1000700089150008891500081513000825130008C4
:1000800089150008891500088915000889150008D8
:1000900089150008891500088915000889150008C8
:1000A00089150008891500088915000889150008B8
:1000B00089150008891500083513000889150008FE
:1000C0008915000889150008891500088915000898
:1000D00089150008451300088915000889150008CE
:1000E000891500088915000889150008000000001E
:1000F0000000000000000000000000000000000000
:0C01000000000000000000005FF808F1A3
:100110004FF0FF0C1CEAD0521EBF1CEAD15392EAEA
:100120000C0F93EA0C0F6FD01A4480EA010C4002C6
:1001300018BF5FEA41211ED04FF0006343EA501020
:1001400043EA5111A0FB01310CF00040B1F5000F62
:100150003EBF490041EAD3715B0040EA010062F111
:100160007F02FD2A1DD8B3F1004F40EBC25008BFFB
:1001700020F00100704790F0000F0CF0004C08BF19
:1001800049024CEA502040EA51207F3AC2BFD2F1E6
:10019000FF0340EAC250704740F400004FF00003F4
:1001A000013A5DDC12F1190FDCBF00F0004070472E
:1001B000C2F10002410021FA02F1C2F1200200FA6C
:1001C00002FC5FEA310040F1000053EA4C0308BF33
:1001D00020EADC70704792F0000F00F0004C02BF84
:1001E000400010F4000F013AF9D040EA0C0093F0FF
:1001F000000F01F0004C02BF490011F4000F013B59
:10020000F9D041EA0C018FE70CEAD15392EA0C0FC6
:1002100018BF93EA0C0F0AD030F0004C18BF31F031
:10022000004CD8D180EA010000F00040704790F007
:10023000000F17BF90F0004F084691F0000F91F0AB
:10024000004F14D092EA0C0F01D142020FD193EA71
:100250000C0F03D14B0218BF084608D180EA0100F9
:1002600000F0004040F0FE4040F40000704740F0D5
:10027000FE4040F44000704781F0004102E000BFC2
:1002800083F0004330B54FEA41044FEA430594EA56
:10029000050F08BF90EA020F1FBF54EA000C55EA91
:1002A000020C7FEA645C7FEA655C00F0E2804FEA62
:1002B0005454D4EB5555B8BF6D420CDD2C4480EA44
:1002C000020281EA030382EA000083EA010180EA74
:1002D000020281EA0303362D88BF30BD11F0004FC2
:1002E0004FEA01314FF4801C4CEA113102D04042F8
:1002F00061EB410113F0004F4FEA03334CEA133333
:1003000002D0524263EB430394EA050F00F0A7804A
:10031000A4F10104D5F1200E0DDB02FA0EFC22FA45
:1003200005F2801841F1000103FA0EF2801843FA39
:1003300005F359410EE0A5F120050EF1200E012A2A
:1003400003FA0EFC28BF4CF0020C43FA05F3C01868
:1003500051EBE37101F0004507D54FF0000EDCF1E1
:10036000000C7EEB00006EEB0101B1F5801F1BD38A
:10037000B1F5001F0CD349085FEA30004FEA3C0C8E
:1003800004F101044FEA445212F5800F80F09A8084
:10039000BCF1004F08BF5FEA500C50F1000041EB88
:1003A000045141EA050130BD5FEA4C0C404141EB8C
:1003B0000101013C28BFB1F5801FE9D291F0000F87
:1003C00004BF01460020B1FA81F308BF2033A3F136
:1003D0000B03B3F120020CDA0C3208DD02F1140C2D
:1003E000C2F10C0201FA0CF021FA02F10CE002F168
:1003F0001402D8BFC2F1200C01FA02F120FA0CFC61
:10040000DCBF41EA0C019040E41AA2BF01EB0451A9
:10041000294330BD6FEA04041F3C1CDA0C340EDCA7
:1004200004F11404C4F1200220FA04F001FA02F3EA
:1004300040EA030021FA04F345EA030130BDC4F1A8
:100440000C04C4F1200220FA02F001FA04F340EA9D
:100450000300294630BD21FA04F0294630BD94F04E
:10046000000F83F4801306BF81F480110134013D35
:100470004EE77FEA645C18BF7FEA655C29D094EAA6
:10048000050F08BF90EA020F05D054EA000C04BF24
:100490001946104630BD91EA030F1EBF002100200F
:1004A00030BD5FEA545C05D14000494128BF41F0AE
:1004B000004130BD14F580043CBF01F5801130BD12
:1004C00001F0004545F0FE4141F470014FF000009D
:1004D00030BD7FEA645C1ABF194610467FEA655C4E
:1004E0001CBF0B46024650EA013406BF52EA0335F0
:1004F00091EA030F41F4002130BD00BF90F0000FDE
:1005000004BF0021704730B54FF4806404F1320419
:100510004FF000054FF0000150E700BF90F0000FD2
:1005200004BF0021704730B54FF4806404F13204F9
:1005300010F0004548BF40424FF000013EE700BFC9
:1005400042004FEAE2014FEA31014FEA02701FBF59
:1005500012F07F4393F07F4F81F06051704732F08B
:100560007F4208BF704793F07F4F04BF41F40021E2
:10057000704730B54FF4607401F0004521F0004140
:100580001CE700BF50EA010208BF704730B54FF0CA
:1005900000050AE050EA010208BF704730B511F0CB
:1005A000004502D5404261EB41014FF4806404F103
:1005B00032045FEA915C3FF4D8AE4FF003025FEA89
:1005C000DC0C18BF03325FEADC0C18BF033202EB0D
:1005D000DC02C2F1200300FA03FC20FA02F001FA67
:1005E00003FE40EA0E0021FA02F11444BDE600BF0A
:1005F00080F0004002E000BF81F0004142001FBFD8
:100600005FEA410392EA030F7FEA226C7FEA236CE0
:100610006AD04FEA1262D2EB1363C1BFD2184140D5
:1006200048404140B8BF5B42192B88BF704710F06B
:10063000004F40F4000020F07F4018BF404211F00E
:10064000004F41F4000121F07F4118BF494292EA76
:10065000030F3FD0A2F1010241FA03FC10EB0C00A2
:10066000C3F1200301FA03F100F0004302D549422F
:1006700060EB4000B0F5000F13D3B0F1807F06D3DC
:1006800040084FEA310102F10102FE2A51D2B1F1D4
:10069000004F40EBC25008BF20F0010040EA0300C9
:1006A0007047490040EB0000013A28BFB0F5000F49
:1006B000EDD2B0FA80FCACF1080CB2EB0C0200FAFF
:1006C0000CF0AABF00EBC25052421843BCBFD0404E
:1006D0001843704792F0000F81F4000106BF80F4C8
:1006E00000000132013BB5E74FEA41037FEA226C8B
:1006F00018BF7FEA236C21D092EA030F04D092F056
:10070000000F08BF0846704790EA010F1CBF002089
:10071000704712F07F4F04D1400028BF40F00040E6
:10072000704712F100723CBF00F50000704700F006
:10073000004343F0FE4040F4000070477FEA22622D
:1007400016BF08467FEA23630146420206BF5FEAFE
:10075000412390EA010F40F4800070474FF00003FE
:1007600004E000BF10F0004348BF40425FEA000CC5
:1007700008BF704743F0964301464FF000001CE06D
:1007800050EA010208BF70474FF000030AE000BFC3
:1007900050EA010208BF704711F0004302D5404201
:1007A00061EB41015FEA010C02BF84460146002073
:1007B00043F0B64308BFA3F18053A3F50003BCFA8E
:1007C0008CF2083AA3EBC25310DB01FA02FC63443B
:1007D00000FA02FCC2F12002BCF1004F20FA02F242
:1007E00043EB020008BF20F00100704702F1200235
:1007F00001FA02FCC2F1200250EA4C0021FA02F296
:1008000043EB020008BF20EADC707047844641EAEF
:10081000000313F0030349D1403A23D30B6803606C
:100820004B6843608B688360CB68C3600B6903616E
:100830004B6943618B698361CB69C3610B6A036256
:100840004B6A43628B6A8362CB6AC3620B6B03633E
:100850004B6B43638B6B8363CB6BC3634030403123
:10086000403ADBD230320BD30B6803604B684360F5
:100870008B688360CB68C36010301031103AF3D2BC
:100880000C3205D351F8043B40F8043B043AF9D24A
:10089000043208D0D2071CBF11F8013B00F8013B1D
:1008A00001D30B8803806046704700BF082A13D32A
:1008B0008B07B1D010F00303AED0C3F10403D21AFA
:1008C000DB071CBF11F8013B00F8013BA4D331F852
:1008D000023B20F8023B9FE7043AD9D3013A11F8D2
:1008E000013B00F8013BF9D20B7803704B78437061
:1008F0008B7883706046704770B54FF0FF0C4CF4F6
:10090000E06C1CEA11541DBF1CEA135594EA0C0F4D
:1009100095EA0C0F00F0DEF82C4481EA030621EA88
:100920004C5123EA4C5350EA013518BF52EA0335C3
:1009300041F4801143F4801338D0A0FB02CE4FF075
:100940000005E1FB02E506F00042E0FB03E54FF0A5
:100950000006E1FB03569CF0000F18BF4EF0010E9D
:10096000A4F1FF04B6F5007F64F5407404D25FEA99
:100970004E0E6D4146EB060642EAC62141EA55514C
:100980004FEAC52040EA5E504FEACE2EB4F1FD0C8E
:1009900088BFBCF5E06F1ED8BEF1004F08BF5FEA0C
:1009A000500E50F1000041EB045170BD06F00046BE
:1009B00046EA010140EA020081EA0301B4EB5C046B
:1009C000C2BFD4EB0C0541EA045170BD41F4801163
:1009D0004FF0000E013C00F3AB8014F1360FDEBF88
:1009E000002001F0004170BDC4F10004203C35DA64
:1009F0000C341BDC04F11404C4F1200500FA05F3E7
:100A000020FA04F001FA05F240EA020001F0004287
:100A100021F0004110EBD37021FA04F642EB0601FD
:100A20005EEA430E08BF20EAD37070BDC4F10C0427
:100A3000C4F1200500FA04F320FA05F001FA04F2EB
:100A400040EA020001F0004110EBD37041F10001D7
:100A50005EEA430E08BF20EAD37070BDC4F12005E2
:100A600000FA05F24EEA020E20FA04F301FA05F24A
:100A700043EA020321FA04F001F0004121FA04F2F2
:100A800020EA020000EBD3705EEA430E08BF20EAC2
:100A9000D37070BD94F0000F0FD101F000464000FC
:100AA00041EB010111F4801F08BF013CF7D041EA7E
:100AB000060195F0000F18BF704703F00046520082
:100AC00043EB030313F4801F08BF013DF7D043EA53
:100AD0000603704794EA0C0F0CEA135518BF95EA09
:100AE0000C0F0CD050EA410618BF52EA4306D1D190
:100AF00081EA030101F000414FF0000070BD50EAAF
:100B0000410606BF1046194652EA430619D094EA38
:100B10000C0F02D150EA013613D195EA0C0F05D122
:100B200052EA03361CBF104619460AD181EA030176
:100B300001F0004141F0FE4141F470014FF000002E
:100B400070BD41F0FE4141F4780170BD70B54FF0C9
:100B5000FF0C4CF4E06C1CEA11541DBF1CEA135549
:100B600094EA0C0F95EA0C0F00F0A7F8A4EB05042B
:100B700081EA030E52EA03354FEA013100F0888022
:100B80004FEA03334FF0805545EA131343EA1263EB
:100B90004FEA022245EA111545EA10654FEA0026A0
:100BA0000EF000419D4208BF964244F1FD0404F559
:100BB000407402D25B084FEA3202B61A65EB0305B5
:100BC0005B084FEA32024FF480104FF4002CB6EB72
:100BD000020E75EB030E22BFB61A754640EA0C00F2
:100BE0005B084FEA3202B6EB020E75EB030E22BF32
:100BF000B61A754640EA5C005B084FEA3202B6EB73
:100C0000020E75EB030E22BFB61A754640EA9C0031
:100C10005B084FEA3202B6EB020E75EB030E22BF01
:100C2000B61A754640EADC0055EA060E18D04FEABF
:100C3000051545EA16754FEA06164FEAC30343EA5F
:100C400052734FEAC2025FEA1C1CC0D111F4801F2C
:100C50000BD141EA00014FF000004FF0004CB6E725
:100C600011F4801F04BF01430020B4F1FD0C88BFC4
:100C7000BCF5E06F3FF6AFAEB5EB030C04BFB6EBCF
:100C8000020C5FEA500C50F1000041EB045170BDC2
:100C90000EF0004E4EEA113114EB5C04C2BFD4EBEF
:100CA0000C0541EA045170BD41F480114FF0000E73
:100CB000013C90E645EA060E8DE60CEA135594EAEF
:100CC0000C0F08BF95EA0C0F3FF43BAF94EA0C0FF2
:100CD0000AD150EA01347FF434AF95EA0C0F7FF467
:100CE00025AF104619462CE795EA0C0F06D152EABB
:100CF00003353FF4FDAE1046194622E750EA41069F
:100D000018BF52EA43067FF4C5AE50EA41047FF4AF
:100D10000DAF52EA43057FF4EBAE12E74FF0FF3C14
:100D200006E000BF4FF0010C02E000BF4FF0010CE5
:100D30004DF804CD4FEA410C7FEA6C5C4FEA430C5E
:100D400018BF7FEA6C5C1BD001B050EA410C0CBFAD
:100D500052EA430C91EA030F02BF90EA020F00200F
:100D6000704710F1000F91EA030F58BF994208BF76
:100D700090422CBFD8176FEAE37040F00100704733
:100D80004FEA410C7FEA6C5C02D150EA013C07D18A
:100D90004FEA430C7FEA6C5CD6D152EA033CD3D0D5
:100DA0005DF8040B704700BF8446104662468C46CF
:100DB0001946634600E000BF01B5FFF7B7FF002802
:100DC00048BF10F1000F01BD4DF808EDFFF7F4FF2B
:100DD0000CBF012000205DF808FB00BF4DF808EDB6
:100DE000FFF7EAFF34BF012000205DF808FB00BFD9
:100DF0004DF808EDFFF7E0FF94BF012000205DF8FB
:100E000008FB00BF4DF808EDFFF7CEFF94BF0120AF
:100E100000205DF808FB00BF4DF808EDFFF7C4FFA8
:100E200034BF012000205DF808FB00BF4FEA410CF1
:100E30007FEA6C5C02D150EA013C0AD14FEA430CD4
:100E40007FEA6C5C02D152EA033C02D14FF0000011
:100E500070474FF0010070474FEA410212F500124F
:100E600015D211D56FF47873B3EB625212D94FEAF1
:100E7000C12343F0004343EA505311F0004F23FADB
:100E800002F018BF404270474FF00000704750EA30
:100E9000013005D111F0004008BF6FF000407047ED
:100EA0004FF00000704700BF0348044B834202D05C
:100EB000034B03B118477047E4060020E406002006
:100EC000000000000548064B1B1AD90F01EBA301D7
:100ED000491002D0034B03B118477047E4060020C5
:100EE000E40600200000000010B5064C237843B94A
:100EF000FFF7DAFF044B13B10448AFF3008001237E
:100F0000237010BDE80600200000000040A8000883
:100F100008B5054B1BB105490548AFF30080BDE896
:100F20000840FFF7CFBF00BF00000000EC06002024
:100F300040A8000800B583B00E4B5A6942F0010288
:100F40005A615B6903F001030193019B00220521B3
:100F50000E2000F085FB0E2000F092FB0022052100
:100F60000F2000F07DFB0F2000F08AFB03B05DF83E
:100F700004FB00BF0010024008B5012002F0BEFBD8
:100F8000FBE70000034B0360034B0B6080231360FF
:100F9000704700BF080900200407002010B59CB06E
:100FA000244C0DF1540CA646BEE80F00ACE80F002F
:100FB0009EE807008CE80700002115A802F06BFBF3
:100FC0001D4B18600DF1380C04F11C0EBEE80F002B
:100FD000ACE80F009EE807008CE8070000210EA88F
:100FE00002F059FB154B18600DF11C0C04F1380E82
:100FF000BEE80F00ACE80F009EE807008CE8070091
:10100000002107A802F047FB0D4B1860EE4604F1E3
:10101000540CBCE80F00AEE80F009CE807008EE817
:1010200007000021684602F036FB064B18601CB032
:1010300010BD00BF58A80008AC0A0020A80A002074
:10104000A40A0020A00A002030B589B0002404942E
:101050000594069407941D4B9A6942F010029A6118
:101060009A6902F010020092009A9A6942F02002F6
:101070009A619A6902F020020192019A9A6942F0FB
:1010800008029A619A6902F008020292029A9A6929
:1010900042F004029A619B6903F004030393039BEB
:1010A0000B4D22464FF40051284600F04BFD4FF403
:1010B000005304930123059306940223079304A984
:1010C000284600F031FC09B030BD00BF00100240DE
:1010D0000010014008B50B480B4B036064234360CC
:1010E00000238360C3604FF48042026143618361E7
:1010F000C361036200F092FF00B908BD00F044F83C
:10110000FBE700BFB00A00200058004010B586B0D1
:10111000002302930393049305930268114B9A42B0
:1011200001D006B010BD104CA36943F00803A361C1
:10113000A36903F008030093009B4FF440630293FC
:10114000122303930323059302A9084800F0ECFB44
:10115000E36943F48003E361E36903F480030193EB
:10116000019BDEE70058004000100240000C0140E7
:1011700008B50268034B9A4200D008BD00F018FA87
:10118000FBE700BF0008004072B6FEE700B591B073
:101190002822002106A803F003FC002301930293F8
:1011A000039304930593012206924FF4803307932F
:1011B0000A9202220D920E934FF4E0130F9306A8A9
:1011C00001F088FA80B90F230193022102910023D4
:1011D00003934FF480620492059301A801F0ACFCE4
:1011E00020B911B05DF804FBFFF7CEFFFFF7CCFF8D
:1011F00008B500F0CBF9FFF7C9FFFFF725FFFFF7B0
:1012000099FE00F007F9FFF765FFFFF7C7FE02F050
:101210003DFAFEE700B583B0114B9A6942F0010236
:101220009A619A6902F001020092009ADA6942F02A
:101230008052DA61DB6903F080530193019B002245
:101240000F216FF0010000F00BFA064A536823F0FB
:10125000E06343F00073536003B05DF804FB00BF2C
:10126000001002400000014030B589B00446214B17
:10127000DA6942F00402DA61DB6903F004030193E6
:10128000019B02A903A801F033FD069BCBB901F035
:101290000FFD0346184AA2FB03239B0C013B174892
:1012A000174A026040F2E732C260436000230361E4
:1012B0008360836101F066FE054630B1284609B0BF
:1012C00030BD01F0F5FC4300E4E70C4801F030FDCF
:1012D00005460028F2D11E2000F0D2F90F2C01D9CA
:1012E0000125EBE7002221461E2000F0B9F9054B4D
:1012F0001C60E3E70010024083DE1B43100B00205C
:101300000008004008000020FEE7FEE7FEE7FEE7D9
:10131000FEE7704708B5024800F064FA08BD00BF58
:10132000A00B002008B5024800F05CFA08BD00BF21
:101330005C0B002008B5024801F032FD08BD00BF7B
:10134000100B002008B5024802F058F808BD00BF95
:10135000E40B00200120704708B503F0FBFB1623C7
:1013600003604FF0FF3008BD08B54FF0FF31FFF7C5
:10137000F3FFFEE770B50C461646002506E0AFF316
:101380000080214601F8010B01350C46B542F6DB21
:10139000304670BD70B50C461646002504E014F8C2
:1013A000010BAFF300800135B542F8DB304670BD6C
:1013B0004FF0FF3070474FF400534B6000207047F0
:1013C000012070470020704710B503460C4A0D49B4
:1013D0000D48006840B10C4800680344521A93421B
:1013E00006D8094A136010BD0748084C0460F2E7AC
:1013F00003F0B0FB0C2303604FF0FF30F3E700BFB6
:101400000050002000040000580B0020A01D002008
:101410007047000008B50A480A4B03604FF4E133F7
:10142000436000238360C36003610C2242618361D7
:10143000C36101F0C0FE00B908BDFFF7A5FEFBE7E0
:10144000E40B00200038014070B586B00023029301
:101450000393049305930268334B9A4201D006B07C
:1014600070BD044603F558439A6942F480429A617C
:101470009A6902F480420092009A9A6942F004024A
:101480009A619B6903F004030193019B4FF400737D
:1014900002930223039303230593244E02A93046AB
:1014A00000F042FA4FF480630293002503950495FF
:1014B00002A9304600F038FA1D481E4B0360102385
:1014C000436085608023C3600561456185614FF499
:1014D0000053C36100F0E2F8F8B9154BA3635C62F6
:1014E0001548164B03600023436083608022C2606E
:1014F0000361436183614FF40053C36100F0CEF890
:1015000070B90D4BE3635C6200220521252000F0D9
:10151000A7F8252000F0B4F8A1E7FFF735FEDCE7D7
:10152000FFF732FEEDE700BF003801400008014040
:10153000A00B0020440002405C0B00205800024039
:10154000FFF766FF0B480C490C4A002302E0D45811
:10155000C4500433C4188C42F9D3094A094C0023FF
:1015600001E013600432A242FBD303F0F9FAFFF763
:101570003FFE704700000020E406002030AD000868
:10158000E8060020A01D0020FEE7000008B5074A7D
:10159000136843F010031360032000F04FF80F208E
:1015A000FFF762FEFFF736FE002008BD0020024074
:1015B000034A1168034B1B780B441360704700BF4C
:1015C0002C0C002004000020014B1868704700BF5D
:1015D0002C0C0020002808DB0901C9B200F1604092
:1015E00000F5614080F80013704700F00F0009011A
:1015F000C9B2014B1954704714ED00E000B500F07A
:101600000700C0F1070CBCF1040F28BF4FF0040C19
:10161000031D062B0FD9C31E4FF0FF3E0EFA0CF030
:1016200021EA000199400EFA03FE22EA0E0241EA85
:1016300002005DF804FB0023EEE70000074AD368D0
:1016400023F4E0631B041B0C000200F4E06003437E
:1016500043F0BF6343F40033D360704700ED00E014
:1016600010B50446054BD868C0F30220FFF7C6FF4B
:1016700001462046FFF7AEFF10BD00BF00ED00E0C1
:10168000002807DB00F01F02400901239340024AB3
:1016900042F82030704700BF00E100E050B310B4C2
:1016A00002460168144B0B441448A0FB03031B09BA
:1016B0009B001364124BD363022382F82130086825
:1016C0006FF30D10536894682343D468234314695F
:1016D00023435469234394692343D4692343034335
:1016E0000B6000209063012382F8213082F82000F3
:1016F00010BC704701207047F8FFFDBFCDCCCCCCAB
:1017000000000240034690F82120D2B2022A06D0FF
:1017100004228263002280F82020012070470168A3
:101720000A6822F00E020A6001680A6822F00102CB
:101730000A60026CC06B012101FA02F2426083F878
:101740002110002083F820007047000008B590F8B1
:101750002130DBB2022B03D004238363012008BDB8
:101760000268136823F00E0313600268136823F005
:10177000010313600368194A934214D01432934250
:101780001FD0143293421ED0143293421ED0143212
:1017900093421ED01432934202D04FF0807203E085
:1017A0004FF4801200E001220D4B5A60012380F8B3
:1017B0002130002380F82030436B6BB19847002024
:1017C000CDE71022F0E74FF48072EDE74FF480523E
:1017D000EAE74FF48032E7E70020C0E70800024064
:1017E0000000024038B5C36B1A6804682568016CB4
:1017F00004238B40134235D015F0040F32D02368F8
:1018000013F0200F03D1236823F00403236003683F
:10181000434A934214D01432934218D01432934264
:1018200017D01432934217D01432934217D0143287
:10183000934202D04FF0806203E04FF4800200E058
:101840000422384B5A60C36A03B1984738BD40221E
:10185000F7E74FF48062F4E74FF48042F1E74FF48A
:101860008022EEE702238B4013423CD015F0020F9A
:1018700039D0236813F0200F06D1236823F00A0320
:101880002360012380F821300368254A934214D055
:10189000143293421CD0143293421BD01432934220
:1018A0001BD0143293421BD01432934202D04FF01B
:1018B000007203E04FF4001200E00222194B5A605C
:1018C000002380F82030836A002BBFD09847BDE703
:1018D0002022F3E74FF40072F0E74FF40052EDE7F7
:1018E0004FF40032EAE708238B401342AED015F0E4
:1018F000080FABD0236823F00E032360026CC16B8A
:10190000012303FA02F24A60836380F82130002346
:1019100080F82030036B002B98D0984796E700BFE3
:10192000080002400000024070B582B00024A446C6
:10193000A1E07E4DAB4214D00CD8A5F58015AB428A
:101940000FD005F57025AB420BD0A5F58015AB4245
:1019500010D106E0764DAB4203D005F58035AB42A1
:1019600008D18B68002B50D0012B49D0426108244C
:1019700000E0CC68BEF1FF0F49D806464FEA8C0262
:1019800033680F25954023EA050304FA02F2134356
:1019900033604B6813F0805F6BD0664B9A6942F0FE
:1019A00001029A619B6903F001030193019B4FEAD5
:1019B0009C02951C604B53F825600CF00305AD00AC
:1019C0000F23AB4026EA03065C4B984226D003F572
:1019D0008063984200F08C8003F58063984200F0A9
:1019E000898003F58063984216D0042317E0CC6801
:1019F0000434BFE7CC680834BCE7CC680C34B9E7E2
:101A000002610824B6E70024B4E70424B2E7061D07
:101A1000ACF108029200B3E7032300E00023AB40DF
:101A200033430232444D45F822304B6813F4801F93
:101A300062D0434A936843EA0E0393604B6813F401
:101A4000001F5FD03E4AD36843EA0E03D3604B6861
:101A500013F4003F5CD03A4A536843EA0E035360E4
:101A60004B6813F4803F59D0354A136843EA0E039C
:101A700013600CF1010C0B6833FA0CF254D0012204
:101A800002FA0CF203EA020E32EA0303F1D14B68C8
:101A9000122B3FF64EAF122B3FF66CAF01A555F857
:101AA00023F000BF6319000873190008F519000836
:101AB000071A00087519000875190008751900083B
:101AC00075190008751900087519000875190008BE
:101AD00075190008751900087519000875190008AE
:101AE0007519000875190008EF190008FB1900089E
:101AF000012394E7022392E7114A936823EA0E0335
:101B000093609BE70E4AD36823EA0E03D3609EE7F7
:101B10000B4A536823EA0E035360A1E7084A13688F
:101B200023EA0E031360A4E702B070BD0000221088
:101B30000000311000100240000001400008014088
:101B4000000401400AB10161704709040161704756
:101B5000C36801EA030221EA030141EA024101618B
:101B6000704703685A6912F4806F01D100207047F2
:101B70006FF480625A6100230363202280F83D20C5
:101B800080F83E30026C42F00402026480F83C307F
:101B9000012070472DE9F04106460C46174698464D
:101BA0003BE0FFF711FD069BC01A404502D8B8F193
:101BB000000F32D1012D18D033689B6924EA03034A
:101BC0009BB2B3FA83F35B099F4226D100233363B0
:101BD000202286F83D2086F83E30326C42F020020A
:101BE000326486F83C30012027E033685B6924EAE0
:101BF00003039BB2B3FA83F35B09E5E733685B69E0
:101C000024EA030C1FFA8CFCBCFA8CFC4FEA5C1C27
:101C1000674511D1B8F1FF3FC3D1C4F30745012D8A
:101C2000ECD033689B6924EA030C1FFA8CFCBCFAE5
:101C30008CFC4FEA5C1CEBE70020BDE8F0812DE94D
:101C4000F84305460E469046994653E01A6842F41A
:101C500000721A602B686FF480625A6100232B6354
:101C6000202285F83D2085F83E302A6C42F004029F
:101C70002A6485F83C3001204AE0FFF7A5FCA0EB80
:101C80000900404502D8B8F1000F33D1012F17D019
:101C90002B689B6926EA03039BB2003B18BF012314
:101CA00043B300232B63202285F83D2085F83E3086
:101CB0002A6C42F020022A6485F83C30012027E09B
:101CC0002B685B6926EA03039BB2003B18BF012324
:101CD000E6E72B689C6926EA0404A4B2003C18BF1E
:101CE0000124A4B12B685A6912F4806FAED1B8F107
:101CF000FF3FC2D1C6F30747012FEAD12B685C69C9
:101D000026EA0404A4B2003C18BF0124E9E700203D
:101D1000BDE8F883F0B583B004460D4616461F466D
:101D2000C36A082B0DD0012B0BD013F5803F08D0D0
:101D3000036B122B0AD10268136843F4807313609B
:101D400004E02268136843F48073136000973346FD
:101D500000224FF001112046FFF71CFF80B92369D4
:101D6000B3F5804F16D1236805F0FE051D613B4693
:101D7000324613492046FFF762FFF8B903B0F0BDC1
:101D800023681B6813F4807F02D04FF40073236430
:101D90000320F3E7EB11226803F0060343F0F0039E
:101DA00013613B46324607492046FFF748FF18B902
:101DB0002368EDB21D61DAE70120DFE70120DDE7EE
:101DC00002000100080001002DE9F04184B0044642
:101DD0000D4616461F46C26A01680B6843F48063CD
:101DE0000B60082A0DD0012A0BD012F5803F08D0D5
:101DF000036B112B0AD10268136843F480731360DC
:101E000004E02268136843F480731360009733463C
:101E100000224FF001112046FFF7BCFE98B923695C
:101E2000B3F5804F19D1236845F00105EDB21D616E
:101E30003B4632462A492046FFF701FF00284CD195
:101E400004B0BDE8F08123681B6813F4807F02D0E2
:101E50004FF4007323640320F2E74FEAE51808F01B
:101E60000608236848F0F0021A613B4632461D49D5
:101E70002046FFF7E4FE08B10120E1E72368EDB258
:101E80001D613B46324616492046FFF7D8FE08B191
:101E90000120D5E7002203922368596903919969CB
:101EA00003910399196841F48071196000973346D2
:101EB0004FF001112046FFF76DFE20B9226848F06F
:101EC000F1031361B4E723681B6813F4807F02D029
:101ED0004FF4007323640320B2E70120B0E700BF92
:101EE000020001000800010070B504460D461646C8
:101EF00023685B6913F0800F21D12046FFF731FE84
:101F0000F8B9B5F1FF3FF3D0FFF75EFB801BA842A5
:101F100001D8002DECD123685B6913F0800FE7D165
:101F200000232363202284F83D2084F83E30226C75
:101F300042F02002226484F83C30012000E00020BE
:101F400070BD0120FCE770B504460D4616462368B7
:101F50005B6913F0040F21D12046FFF702FEF8B9A8
:101F6000B5F1FF3FF3D0FFF72FFB801BA84201D84C
:101F7000002DECD123685B6913F0040FE7D1002337
:101F80002363202284F83D2084F83E30226C42F006
:101F90002002226484F83C30012000E0002070BD63
:101FA0000120FCE770B504460D46164614E06FF0BC
:101FB00010025A6100232363202284F83D2084F814
:101FC0003E30226C226484F83C30012025E02368F6
:101FD0005B6913F0400F10D02368586910F0400F70
:101FE0001AD1586910F0100FE1D1FFF7EDFA801BFC
:101FF000A842ECD8002DEFD1E9E70023236320228B
:1020000084F83D2084F83E30226C42F020022264A5
:1020100084F83C30012000E0002070BD002800F072
:10202000CC8070B5044690F83D30002B77D0242347
:1020300084F83D302268136823F00103136022689E
:10204000136843F4004313602268136823F40043C9
:10205000136000F02DFE62685A4B9A4264D85A4BC6
:1020600098428CBF00230123002B40F0A8805749E1
:10207000A1FB00318B0C25686A6822F03F0242EA1E
:1020800091426A6021680A6A22F03F0266684D4DFB
:10209000AE424FD8013313430B622168CA6922F460
:1020A0004F4222F0FF026568464B9D424CD8431ECA
:1020B0006D00B3FBF5F3013340F6FC70034278D0BA
:1020C000C3F30B031A43CA6121680B6823F0C003F2
:1020D000E269206A024313430B6021688B6823F492
:1020E000034323F0FF032269E068024313438B603C
:1020F0002168CB6823F0FF036269A06902431343A0
:10210000CB602268136843F0010313600020206451
:10211000202384F83D30206384F83E0070BD80F8B1
:102120003C30FEF7F3FF82E7294B98428CBF002337
:10213000012399E74FF4967505FB03F3254DA5FBA5
:1021400003539B090133A6E7A668BEB9431E05EBFE
:10215000450CB3FBFCF30133C3F30B03B3FA83F376
:102160005B0943BBC6B9431E05EB4505B3FBF5F35D
:102170000133C3F30B0343F40043A3E7431E05EB12
:10218000850C0CEB8C0CB3FBFCF30133C3F30B039A
:10219000B3FA83F35B09E4E7431E05EB850505EB22
:1021A0008505B3FBF5F30133C3F30B0343F440435D
:1021B00088E7042386E7012384E701207047012094
:1021C000ACE700BFA08601007F841E0083DE1B43B6
:1021D000FF083D00D34D62102DE9F04385B0044661
:1021E0000F46914698460C9EFFF7EEF9054694F887
:1021F0003D00C0B2202804D00227384605B0BDE813
:10220000F0830095192301224F492046FFF7C2FCB5
:10221000002840F0928094F83C30012B00F08F8031
:10222000012384F83C3023681A6812F0010F03D1AF
:102230001A6842F001021A602268136823F40063EE
:102240001360212384F83D30102384F83E300023AE
:102250002364C4F82490A4F82A80638D23853B4B23
:10226000E3622B46324639462046FFF753FD0746C8
:10227000002866D10023039323685A6903929B695F
:102280000393039B11E0236C042B01D00127B4E7D7
:102290002268136843F400731360F7E72A46314657
:1022A0002046FFF750FE00282ED1238D002B36D07C
:1022B0002A4631462046FFF717FE0028E3D1626A1E
:1022C000236812781A61606A431C6362618D89B267
:1022D000013989B26185238D013B9BB22385226838
:1022E000516911F0040FD9D0002BD7D04378136176
:1022F000636A01336362638D9BB2013B9BB263856A
:10230000238D013B2385C9E7236C042B01D00127D2
:1023100073E72268136843F400731360F7E72268D9
:10232000136843F400731360202384F83D300023C6
:1023300084F83E3084F83C305FE702275DE70227EF
:102340005BE7012759E700BF020010000000FFFF14
:102350002DE9F04389B004460F4691469846109EF9
:1023600000230793FFF730F9054694F83D00C0B20B
:10237000202804D00227384609B0BDE8F083009534
:102380001923012280492046FFF704FC002840F071
:102390007A8194F83C30012B00F07781012384F896
:1023A0003C3023681A6812F0010F03D11A6842F01A
:1023B00001021A602268136823F400631360222369
:1023C00084F83D30102384F83E3000232364C4F8A1
:1023D0002490A4F82A80638D23856C4BE3622B46FE
:1023E000324639462046FFF7EFFC0746002840F00A
:1023F0004E81238D5BB9039323685A6903929A69CE
:102400000392039A1A6842F400721A60F3E0012BF7
:102410000FD0022B21D02268136843F4806313602D
:102420000023069323685A6906929B690693069BCC
:10243000E1E02268136823F48063136072B600231E
:10244000049323685A6904929A690492049A1A6858
:1024500042F400721A6062B6CDE02268136843F459
:102460000063136072B60023059323685A690592CE
:102470009A690592059A1A6822F480621A6062B617
:10248000B9E02A4631462046FFF78CFD002840F08F
:10249000008123681A69636A1A70636A0133636290
:1024A000238D013B2385638D9BB2013B9BB26385EA
:1024B000A1E000953346002235492046FFF76AFB2C
:1024C000002840F0EA802268136823F480631360D8
:1024D00072B623681A69636A1A70636A01336362A9
:1024E000238D013B2385638D9BB2013B9BB26385AA
:1024F000284B1B68DB08284AA2FB03231B0A03EBBB
:102500008303C3EBC3030793079901390791079925
:10251000002928D023685A6912F0040FF4D01A68F1
:1025200042F400721A6023681A69636A1A70636A57
:1025300001336362238D013B2385638D9BB2013B95
:102540009BB2638562B623681A69636A1A70636A0C
:1025500001336362238D013B2385638D9BB2013B75
:102560009BB2638547E000232363202284F83D204B
:1025700084F83E30226C42F02002226462B684F875
:102580003C300127F7E600BF020010000000FFFF0B
:10259000040001000000002089B5F8142A463146E5
:1025A0002046FFF7FFFC002879D123681A69636A87
:1025B0001A70636A01336362228D013A92B22285F6
:1025C000638D9BB2013B9BB263852368596911F00F
:1025D000040F10D0032A48D023681A69636A1A705E
:1025E000636A01336362238D013B2385638D9BB254
:1025F000013B9BB26385218D00293BD00329CDD8B7
:1026000001293FF43EAF02297FF453AF00953346D2
:10261000002224492046FFF7BDFA00283BD172B6BC
:102620002268136843F40073136023681A69636AAD
:102630001A70636A01336362238D013B2385638DC6
:102640009BB2013B9BB2638562B623681A69636AD9
:102650001A70636A01336362238D013B2385638DA6
:102660009BB2013B9BB26385C5E71A6822F4806286
:102670001A60B1E7202384F83D30002384F83E300F
:1026800084F83C3077E6022775E6022773E60127D7
:1026900071E601276FE601276DE601276BE601274A
:1026A00069E600BF0400010082B0084B1B68084ABD
:1026B000A2FB03235B0A00FB03F3019300BF019B12
:1026C0005A1E0192002BF9D102B070470000002081
:1026D000D34D6210002800F0F18170B582B004463D
:1026E000036813F0010F2CD0994B5B6803F00C03C7
:1026F000042B1DD0964B5B6803F00C03082B12D003
:102700006368B3F5803F41D0002B55D103F180437E
:1027100003F504331A6822F480321A601A6822F42E
:1027200080221A6037E08A4B5B6813F4803FE7D061
:10273000874B1B6813F4003F03D06368002B00F045
:10274000BF81236813F0020F75D0814B5B6813F0D3
:102750000C0F5FD07E4B5B6803F00C03082B54D04A
:102760002369002B00F08A807A4B01221A60FEF761
:102770002BFF0546764B1B6813F0020F75D1FEF751
:1027800023FF401B0228F5D903209EE1704A1368FD
:1027900043F480331360636843B3FEF715FF0546C7
:1027A0006B4B1B6813F4003FCBD1FEF70DFF401BB2
:1027B0006428F5D9032088E1B3F5A02F09D0644B34
:1027C0001A6822F480321A601A6822F480221A6091
:1027D000E1E703F18043A3F53C331A6842F4802219
:1027E0001A601A6842F480321A60D4E7FEF7ECFEF1
:1027F0000546574B1B6813F4003FA2D0FEF7E4FEDA
:10280000401B6428F5D903205FE1514B5B6813F44A
:10281000803FA5D14E4B1B6813F0020F03D02369F4
:10282000012B40F04F814A4A136823F0F803616995
:1028300043EAC1031360236813F0080F33D0A36980
:10284000002B5CD0434B0122C3F88024FEF7BCFE72
:1028500005463F4B5B6A13F0020F21D1FEF7B4FE31
:10286000401B0228F5D903202FE1394A136823F0D1
:10287000F803616943EAC1031360DCE7354B0022CA
:102880001A60FEF7A1FE0546314B1B6813F0020FDC
:10289000D1D0FEF799FE401B0228F5D9032014E1A0
:1028A0000120FFF701FF236813F0040F00F096806A
:1028B000274BDB6913F0805F34D1254BDA6942F096
:1028C0008052DA61DB6903F080530193019B01259B
:1028D000214B1B6813F4807F26D0E368012B3DD089
:1028E000002B53D103F1804303F504331A6A22F01D
:1028F00001021A621A6A22F004021A6233E0154BCE
:102900000022C3F88024FEF75FFE0546104B5B6A89
:1029100013F0020FC7D0FEF757FE401B0228F5D96F
:102920000320D2E00025D3E70B4A136843F48073F9
:102930001360FEF749FE0646074B1B6813F4807FC1
:10294000CBD1FEF741FE801B6428F5D90320BCE003
:102950000010024000004242007000405F4A136ACB
:1029600043F001031362E36833B3FEF72DFE06461E
:102970005A4B1B6A13F0020F2FD1FEF725FE801B66
:1029800041F288339842F3D903209EE0052B09D009
:10299000524B1A6A22F001021A621A6A22F00402E9
:1029A0001A62E0E74D4B1A6A42F004021A621A6A90
:1029B00042F001021A62D6E7FEF706FE0646474BD2
:1029C0001B6A13F0020F08D0FEF7FEFD801B41F2D8
:1029D00088339842F3D9032077E0E5B9E369002B07
:1029E00072D03E4A526802F00C02082A56D0022BDE
:1029F00017D03B4B00221A66FEF7E6FD0446374B24
:102A00001B6813F0007F47D0FEF7DEFD001B022895
:102A1000F5D9032059E0314AD36923F08053D361BB
:102A2000DCE72F4B00221A66FEF7CEFD05462B4B46
:102A30001B6813F0007F06D0FEF7C6FD401B02287E
:102A4000F5D9032041E0236AB3F5803F1AD023492A
:102A50004B6823F47413226A606A024313434B6089
:102A60001F4B01221A66FEF7AFFD04461B4B1B6885
:102A700013F0007F0ED1FEF7A7FD001B0228F5D949
:102A8000032022E0154A536823F40033A1680B4366
:102A90005360DCE7002018E0002016E0012B16D080
:102AA0000E4B5B6803F48031226A914211D103F42A
:102AB0007013626A93420ED1002006E00120704735
:102AC000012002E0012000E0002002B070BD0120E2
:102AD000FBE70120F9E70120F7E700BF0010024003
:102AE000000042420F4B5B6803F00C02082A01D041
:102AF0000D487047C3F383420C49885C13F4803F50
:102B00000BD0084B5B68C3F34043094AD35C064AC9
:102B100002FB00F0B0FBF3F07047064B03FB00F044
:102B2000704700BF0010024000127A00C8AA0008D7
:102B3000C4AA000800093D00002800F0A08070B57C
:102B40000D460446524B1B6803F007038B420BD221
:102B50004F4A136823F007030B431360136803F015
:102B600007038B4240F08D80236813F0020F17D0CB
:102B700013F0040F04D0474A536843F4E0635360F2
:102B8000236813F0080F04D0424A536843F460539B
:102B90005360404A536823F0F003A1680B4353602D
:102BA000236813F0010F31D06368012B20D0022B72
:102BB00025D0384A126812F0020F64D035494A68AD
:102BC00022F0030213434B60FEF7FEFC0646314B36
:102BD0005B6803F00C036268B3EB820F16D0FEF75C
:102BE000F3FC801B41F288339842F0D9032045E082
:102BF000284A126812F4003FE0D101203EE0254A45
:102C0000126812F0007FD9D1012037E0204B1B68F9
:102C100003F00703AB420AD91D4A136823F00703E8
:102C20002B431360136803F00703AB422DD12368D5
:102C300013F0040F06D0174A536823F4E063E168E9
:102C40000B435360236813F0080F07D0114A5368F1
:102C500023F46053216943EAC1035360FFF742FF45
:102C60000C4B5B68C3F303130B4AD35CD8400B4B8C
:102C700018600B4B1868FEF7F7FA002070BD0120B2
:102C800070470120FAE70120F8E70120F6E700BFCE
:102C90000020024000100240B4AA000800000020FA
:102CA00008000020014B1868704700BF000000209A
:102CB00008B5FFF7F7FF044B5B68C3F30223034A31
:102CC000D35CD84008BD00BF00100240ACAA000889
:102CD00008B5FFF7E7FF044B5B68C3F3C223034A61
:102CE000D35CD84008BD00BF00100240ACAA000869
:102CF0000F2303600B4B5A6802F0030242605A68CC
:102D000002F0F00282605A6802F4E062C2605B681E
:102D1000DB0803F4E0630361034B1B6803F0070364
:102D20000B60704700100240002002407047000016
:102D300090F83D30DBB2012B27D1022380F83D30E3
:102D40000268D36843F00103D3600368114A9342D9
:102D500010D0B3F1804F0DD0A2F59432934209D038
:102D600002F58062934205D01A6842F001021A60AF
:102D7000002070479A6802F00702062A07D01A68F6
:102D800042F001021A6000207047012070470020C5
:102D9000704700BF002C0140704770477047704774
:102DA00070B504460368DE681D6915F0020F10D087
:102DB00016F0020F0DD06FF002021A6101230377A3
:102DC00003689B6913F0030F5ED0FFF7E6FF002353
:102DD000237715F0040F12D016F0040F0FD02368DC
:102DE0006FF004021A610223237723689B6913F4AE
:102DF000407F4FD02046FFF7D0FF0023237715F008
:102E0000080F12D016F0080F0FD023686FF00802D9
:102E10001A61042323772368DB6913F0030F40D082
:102E20002046FFF7BAFF0023237715F0100F12D0CA
:102E300016F0100F0FD023686FF010021A610823EC
:102E400023772368DB6913F4407F31D02046FFF7F6
:102E5000A4FF0023237715F0010F02D016F0010F15
:102E60002DD115F0800F02D016F0800F2FD115F064
:102E7000400F02D016F0400F31D115F0200F02D0D4
:102E800016F0200F33D170BDFFF786FF2046FFF705
:102E900085FF9CE72046FFF77FFF2046FFF77EFF78
:102EA000ABE72046FFF778FF2046FFF777FFBAE74A
:102EB0002046FFF771FF2046FFF770FFC9E7236840
:102EC0006FF001021A612046FEF752F9C9E7236844
:102ED0006FF080021A61204600F081F8C7E723688E
:102EE0006FF040021A612046FFF759FFC5E72368DB
:102EF0006FF020021A61204600F070F8C3E700006E
:102F000003681F4A90420AD0B0F1804F07D0A2F563
:102F10009432904203D002F58062904203D123F0B4
:102F200070034A681343164A90420AD0B0F1804FAA
:102F300007D0A2F59432904203D002F5806290420D
:102F400003D123F44073CA68134323F080034A6912
:102F5000134303608B68C3620B688362084B98421B
:102F60000AD001234361036913F0010F03D0036901
:102F700023F00103036170470B690363F1E700BFAE
:102F8000002C014040B310B5044690F83D30F3B139
:102F9000022384F83D30214651F8040BFFF7B0FFBF
:102FA000012384F8463084F83E3084F83F3084F8BA
:102FB000403084F8413084F8423084F8433084F85B
:102FC000443084F8453084F83D30002010BD80F84E
:102FD0003C30FFF7ABFEDBE70120704770477047DE
:102FE000026802F10C0353E8003F23F490730C32A3
:102FF00042E800310029F3D1026802F1140353E8DA
:10300000003F23F00103143242E800310029F3D1DC
:10301000036B012B05D0202380F84230002303638B
:103020007047026802F10C0353E8003F23F01003DD
:103030000C3242E800310029F3D1ECE790F841303E
:10304000DBB2212B01D0022070478368B3F5805F8B
:1030500017D0036A5A1C02621A7803685A60C38C3C
:103060009BB2013B9BB2C3844BB90268D36823F087
:103070008003D3600268D36843F04003D36000202C
:1030800070470369002BE4D1036A1B880268C3F30D
:1030900008035360036A02330362E0E710B5044695
:1030A0000268136923F44053C1680B4313618368BA
:1030B0000269134342691A430168CB6823F4B05391
:1030C00023F00C031343CB600268536923F440736D
:1030D00081690B4353610268134B9A4220D0FFF77A
:1030E000E7FD024602EB820202EB820263689B006C
:1030F000B2FBF3F20D48A0FB02314909642303FB44
:1031000011231B013233A0FB03035B0903F0F00220
:1031100002EB011203F00F03216813448B6010BD12
:10312000FFF7D6FD0246DDE7003801401F85EB5171
:103130002DE9F04383B005460E4617469946DDF863
:1031400028802B681C6836EA04040CBF0124002484
:10315000BC4228D1B8F1FF3FF3D0FEF735FAA0EB1F
:103160000900404523D8B8F1000F22D02B68DA6857
:1031700012F0040FE5D0802EE3D0402EE1D01A6883
:1031800012F0080FDDD0002401941A6801925B68E8
:103190000193019B2846FFF723FF08236B6485F802
:1031A0004040012000E0002003B0BDE8F083032090
:1031B000FAE70320F8E760B310B5044690F8413011
:1031C00013B3242384F841302268D36823F40053D6
:1031D000D3602046FFF762FF2268136923F490430F
:1031E00013612268536923F02A0353612268D3686C
:1031F00043F40053D36000206064202384F84130FE
:1032000084F84230606310BD80F84030FEF71CF94E
:10321000D7E7012070472DE9F04182B01E4690F8B3
:103220004130DBB2202B56D104460D469046002992
:1032300055D00AB901204FE000234364212380F8D0
:103240004130FEF7C1F90746A4F82480A4F826808F
:10325000A368B3F5805F02D04FF0000814E0236943
:103260002BB34FF000080FE0202384F841300320F7
:1032700032E038F8023B2268C3F308035360E28C63
:1032800092B2013A92B2E284E38C9BB293B100967F
:103290003B46002280212046FFF74AFF0028E3D169
:1032A000002DE6D015F8012B23685A60E7E7A84601
:1032B0000025E9E700963B46002240212046FFF723
:1032C00037FF18B9202384F8413005E0202384F823
:1032D0004130032000E0022002B0BDE8F08101206F
:1032E000FAE7704708B50168CA6822F04002CA6070
:1032F000202280F84120FFF7F4FF002008BD70472E
:10330000704708B5406A0023C385C384FFF7F8FF00
:1033100008BD704790F84230DBB2222B69D1836838
:10332000B3F5805F4FD0826AB3F5805F04D0002B85
:1033300056D10369002B53D103685B681370836A0D
:1033400001338362C38D9BB2013B9BB2C385002BCB
:1033500051D100B583B00268D36823F02003D36055
:103360000268D36823F48073D3600268536923F042
:1033700001035361202380F8423000234363036B31
:10338000012B33D100230363026802F10C0353E8DD
:10339000003F23F010030C3242E800310029F3D142
:1033A00003681A6812F0100F06D0002201921A6802
:1033B00001925B680193019B818DFFF7AAFF0020BA
:1033C00003B05DF804FB0269002AACD1826A03688D
:1033D0005B68C3F308031380836A02338362B1E737
:1033E00003685B6803F07F031370A8E7FFF787FFAC
:1033F000E5E70220704700207047000010B582B05A
:10340000044602681368D068516913F00F0F09D1A0
:1034100013F0200F0CD010F0200F09D02046FFF73A
:1034200079FF16E011F0010115D110F4907F12D14F
:10343000216B012979D013F0800F03D010F0800F99
:1034400040F0138113F0400F03D010F0400F40F014
:10345000108102B010BD13F0010F06D010F4807F70
:1034600003D0626C42F00102626413F0040F04D0D6
:1034700019B1626C42F00202626413F0020F04D0D0
:1034800019B1626C42F00402626413F0080F07D0B5
:1034900010F0200F00D119B1626C42F00802626492
:1034A000626C002AD5D013F0200F02D010F0200F4C
:1034B00029D123685B6903F04003626C12F0080FA6
:1034C00000D163B32046FFF78BFD23685B6913F0DF
:1034D000400F20D0226802F1140353E8003F23F08C
:1034E0004003143242E800310029F3D1E36B73B199
:1034F000624A5A63E06BFEF729F90028A9D0E06B15
:10350000436B9847A5E72046FFF704FFD1E7204625
:10351000FFF7F6FE9DE72046FFF7F2FE99E720460B
:10352000FFF7EEFE0023636493E713F0100F82D0E1
:1035300010F0100F3FF47FAF002301931368019345
:1035400053680193019B536913F0400F51D0E26B14
:1035500013685B689BB2002B3FF47BAFA18D99424F
:103560007FF677AFE3859369202B37D0226802F18D
:103570000C0353E8003F23F480730C3242E800311F
:103580000029F3D1226802F1140353E8003F23F02D
:103590000103143242E800310029F3D1226802F11C
:1035A000140353E8003F23F04003143242E8003193
:1035B0000029F3D1202384F84230002323632268BA
:1035C00002F10C0353E8003F23F010030C3242E8F1
:1035D00000310029F3D1E06BFEF794F80223636316
:1035E000A18DE38D9BB2C91A89B22046FFF791FEE7
:1035F0002FE7A18DE38D9BB2C91A89B2E38D9BB2EF
:10360000002B3FF426AF00293FF423AF226802F1DC
:103610000C0353E8003F23F490730C3242E800306F
:103620000028F3D1226802F1140353E8003F23F08D
:103630000103143242E800300028F3D1202384F83B
:10364000423000232363226802F10C0353E8003F59
:1036500023F010030C3242E800300028F3D102239B
:1036600063632046FFF755FEF3E62046FFF7E6FCCE
:10367000EFE62046FFF736FEEBE600BF0333000817
:10368000842801D0033070470020704708B500F04F
:1036900017FD002008BD2DE9F04387B00E464469B0
:1036A000C4B18569B5B14768D0F80080D0F81090F2
:1036B000B0F90800FFF7E4FF02950194009033464B
:1036C0004A464146384600F08BFC0590059807B005
:1036D000BDE8F083446805680769B0F90800FFF7A2
:1036E000CFFF05AB019300903346BAB2294620467E
:1036F00000F0B3FC0128E9D00020E8E708B500B9E4
:10370000012000F02FFE002008BD00F108034360F7
:103710004FF0FF328260C360036100230360704793
:1037200000230361704743684B609A688A60516068
:1037300099600861036801330360704730B40D6815
:10374000B5F1FF3F11D000F108031C465B681A6811
:10375000AA42FAD963684B6099608C606160086125
:1037600003680133036030BC70470469F2E7036902
:10377000416882688A60416851605A68824206D016
:10378000002202611A68013A1A601868704782685C
:103790005A60F5E782B0002301930D4B1B68B3F12B
:1037A000FF3F08D04FF0500383F31188BFF36F8FB2
:1037B000BFF34F8FFEE74FF0500383F31188BFF341
:1037C0006F8FBFF34F8F019B002BFCD002B070476F
:1037D0000C00002006480068006880F3088862B684
:1037E00061B6BFF34F8FBFF36F8F00DF00BF0000E4
:1037F00008ED00E04FF0807340F8043C21F0010137
:1038000040F8081C034B40F80C3C40F8202C403892
:10381000704700BF9537000800000000000000005E
:10382000074B19680868B0E8F00F80F30988BFF308
:103830006F8F4FF0000080F311884EF00D0E70472F
:10384000801900204FF0500383F31188BFF36F8F6E
:10385000BFF34F8F0B4A136801331360012B00D065
:1038600070474FF0E023D3F8043D13F0FF0FF7D07B
:103870004FF0500383F31188BFF36F8FBFF34F8F67
:10388000FEE700BF0C000020094B1B6843B94FF056
:10389000500383F31188BFF36F8FBFF34F8FFEE7A1
:1038A000013B034A13600BB983F31188704700BFD3
:1038B0000C000020000000000000000000000000DC
:1038C000EFF30980BFF36F8F0D4B1A6820E9F00FFB
:1038D00010602DE908404FF0500080F3118800F08F
:1038E00067FD4FF0000080F31188BDE808401968BB
:1038F0000868B0E8F00F80F30988BFF36F8F704756
:103900008019002008B54FF0500383F31188BFF3EE
:103910006F8FBFF34F8F00F01DFC28B14FF0E023F5
:103920004FF08052C3F8042D002383F3118808BDA3
:103930004FF0E022002313619361054B1B6805499A
:10394000A1FB03139B09013B5361072313617047DC
:1039500000000020D34D621010B582B02A4B1A78B7
:10396000D2B20192FF221A701B78DBB28DF80330BD
:103970009DF8033003F05003244A1370244B0722B0
:103980001A6009E0224A1368013B13609DF8033076
:103990005B00DBB28DF803309DF8033013F0800F2D
:1039A000F0D11B4B1B68032B08D04FF0500383F35F
:1039B0001188BFF36F8FBFF34F8FFEE71B02144ACE
:1039C000136003F4E0631360019BDBB20E4A1370D3
:1039D0004FF0E023D3F8202D42F47002C3F8202DDD
:1039E000D3F8202D42F07042C3F8202DFFF7A0FF3E
:1039F0000024084B1C60FFF7EDFE00F0D9FCFFF738
:103A0000C9FE204602B010BD00E400E0340C0020E6
:103A1000300C00200C000020124A12F0070F1ED0BC
:103A2000D11D21F00701C1F5406313440A460E4839
:103A30000260002141601344083B23F007030B4858
:103A4000036059601960991A51601360084B19603E
:103A5000084B1960084B4FF000421A6070474FF452
:103A60004063E4E7580C0020500C00204C0C002070
:103A7000440C0020480C0020380C0020154B1A463E
:103A80001B688342FBD3516802EB010C844509D0CB
:103A9000416800EB010C634509D00360904218D0E7
:103AA000106070474068014451601046F0E710B460
:103AB000094C2468A3420AD05B681944416013682A
:103AC0001B680360904200D0106010BC7047046017
:103AD000F8E77047500C00204C0C002038B5044625
:103AE00000F030FB384B1B68B3B1384B1B681C42ED
:103AF00050D1002C50D004F1080214F0070F02D06E
:103B000022F007020832002A55D0314B1B6893423D
:103B100053D330490C6804E0FFF77EFFE5E7214608
:103B20001C466368934202D22368002BF7D1264BD0
:103B30001B68A34243D00D68083523680B60636897
:103B40009B1A102B10D9A01810F0070F08D04FF0B7
:103B5000500383F31188BFF36F8FBFF34F8FFEE7DE
:103B600043606260FFF78AFF626819490B689B1A1D
:103B70000B60194909688B4201D217490B60134B3E
:103B80001B681343636000232360144A13680133E6
:103B9000136002E0002500E0002500F067FB15F04F
:103BA000070F0ED04FF0500383F31188BFF36F8FD0
:103BB000BFF34F8FFEE70025EFE70025EDE7002577
:103BC000EBE7284638BD00BF4C0C0020380C002025
:103BD000480C0020500C0020440C0020400C002019
:103BE000002834D038B50446A0F1080550F8043C4C
:103BF000174A1268134208D14FF0500383F311881B
:103C0000BFF36F8FBFF34F8FFEE750F8081C41B131
:103C10004FF0500383F31188BFF36F8FBFF34F8FC3
:103C2000FEE723EA020340F8043C00F08BFA54F864
:103C3000041C084A13680B4413602846FFF71EFF54
:103C4000054A13680133136000F010FB38BD70475C
:103C5000380C0020480C00203C0C0020084B1B684E
:103C60001B6823B9074B4FF0FF321A607047044BB3
:103C70001B68DB68DB685A68024B1A60704700BF3C
:103C8000C8180020601800202DE9F0470746984624
:103C9000089DDDF824900A9C266B02F18042013ACF
:103CA00006EB820626F00706002964D008464FF08E
:103CB000000CBCF10F0F09D810F80C2004EB0C031A
:103CC00083F8342012B10CF1010CF2E7002384F8E0
:103CD0004330062D00D90625E56265644FF0000AE1
:103CE000C4F848A0201DFFF71BFD04F11800FFF7E2
:103CF00017FD2461C5F10705A5616462C4F890A1B0
:103D000084F894A14FF4A072514604F1500000F0E1
:103D100047FE1B4B636503F16802A265D033E36580
:103D200001220023C4E93A2343F20E33A4F8F03011
:103D30004AF6CD33A4F8F23041F23423A4F8F4303B
:103D40004EF26D63A4F8F6304DF6EC63A4F8F8304B
:103D50000523A4F8FA300B23A4F8FC304246394678
:103D60003046FFF747FD2060B9F1000F01D0C9F8D8
:103D70000040BDE8F087002384F83430A9E700BF95
:103D80008C1A002038B5002407E004EB840293006D
:103D90000E481844FFF7B9FC0134062CF5D90C4D38
:103DA0002846FFF7B2FC0B4C2046FFF7AEFC0A4852
:103DB000FFF7ABFC0948FFF7A8FC0948FFF7A5FC93
:103DC000084B1D60084B1C6038BD00BFF418002074
:103DD000E0180020CC180020B01800209C1800200B
:103DE00084180020C8180020C418002010B504460C
:103DF000FFF728FD214A136801331360204B1B682D
:103E00005BB1204B1B686BB91D4B1B68DA6AE36A18
:103E10009A4207D81A4B1C6004E0194B1C601368C7
:103E2000012B28D0184A136801331360E06A01237C
:103E30008340164A11680B43136000EB8000211D7C
:103E4000134B03EB8000FFF76EFCFFF71DFD0D4BDE
:103E50001B687BB10A4B1B68DA6AE36A9A4209D293
:103E60004FF0E0234FF08052C3F8042DBFF34F8F83
:103E7000BFF36F8F10BDFFF785FFD3E780180020D9
:103E80008019002074180020641800207818002081
:103E9000F418002010B50446503000F0E3FD94F80B
:103EA000953163B1012B11D0022B0ED04FF050038E
:103EB00083F31188BFF36F8FBFF34F8FFEE7206B43
:103EC000FFF78EFE2046FFF78BFE10BD2046FFF762
:103ED00087FEFAE70F4B1B68D3B110B5FFF7B2FCB2
:103EE0000D4BDB68DC68201DFFF741FC0B4A1368B3
:103EF000013B1360074A1368013B1360FFF7C4FCE2
:103F00002046FFF7C7FF034B1B68002BE6D110BD0F
:103F1000704700BF981800209C18002080180020CF
:103F200008B5FFF7D7FF074B1B68012BF9D94FF0F6
:103F3000E0234FF08052C3F8042DBFF34F8FBFF33F
:103F40006F8FEEE7F418002070B504460D461D4B48
:103F50001E681D4B18680430FFF709FC48B91A4B5E
:103F60001B68DB6A01229A4018490B6823EA0203A6
:103F70000B60B4F1FF3F0DD03444134B1B685C6001
:103F8000A64210D9124B18680F4B19680431FFF77D
:103F9000D5FB70BD002DEFD00B4B196804310D48D7
:103FA000FFF7C1FBF5E70C4B1868074B19680431A4
:103FB000FFF7C4FB094B1B68A342EAD9074B1C60FF
:103FC000E7E700BF7C180020801900207818002047
:103FD000C418002084180020C81800206018002091
:103FE00030B587B00B9C8CB10C9DC5B14FF4CC752E
:103FF0000495049DB5F5CC7F1AD04FF0500383F3A0
:104000001188BFF36F8FBFF34F8FFEE74FF0500360
:1040100083F31188BFF36F8FBFF34F8FFEE74FF02D
:10402000500383F31188BFF36F8FBFF34F8FFEE709
:10403000049D0C9D2C63022485F895410024039473
:10404000029505AC01940A9C0094FFF71DFE0C98A4
:10405000FFF7CCFE059807B030BD2DE9F04385B0E1
:104060000746884614461E469000FFF737FD10B3FA
:1040700081464FF4CC70FFF731FD0546A8B1C0F87A
:104080003090002380F89531039302900D9B0193AB
:104090000C9B00933346224641463846FFF7F4FD19
:1040A0002846FFF7A3FE012007E04846FFF798FDEA
:1040B0004FF0FF3001E04FF0FF3005B0BDE8F08376
:1040C00010B588B000240594069407AA06A905A88F
:1040D000FCF758FF059B0293069B0193009423462F
:1040E000079A10491048FFF77BFF104B1860B8B1D2
:1040F0004FF0500383F31188BFF36F8FBFF34F8FDF
:104100000B4B1B6850330B4A13600B4B4FF0FF32C5
:104110001A600A4B01221A60094B1C60FFF71CFC55
:1041200008B010BDF0A80008213F00085C1800206E
:10413000801900201C000020601800207418002046
:104140007C180020024A136801331360704700BFD7
:1041500058180020F8B53A4B1B68002B69D1394B31
:104160001D6801351D60C5B9374B1B681B6843B11D
:104170004FF0500383F31188BFF36F8FBFF34F8F5E
:10418000FEE7314A1168314B186810601960304AF7
:10419000136801331360FFF761FD2E4B1B68AB42C0
:1041A0003DD900272C4B1B68DB6A03EB83039A0085
:1041B0002A4B9B58012B00D90127294B1B68002B48
:1041C0003CD001273AE001271F4B1B681B6843B313
:1041D0001D4B1B68DB68DC6863689D4226D3261D87
:1041E0003046FFF7C4FAA36A1BB104F11800FFF7C9
:1041F000BEFAE36A01229A401A49086802430A603B
:1042000003EB83039A00314614481044FFF78BFAFE
:10421000E26A114B1B68DB6A9A42D4D2D4E70027CA
:10422000D2E70C4B4FF0FF321A60BBE7094A13602C
:10423000B8E70D4A13680133136000273846F8BD0C
:10424000581800207C180020C8180020C41800202E
:10425000681800206018002080190020F418002041
:104260006C180020781800207018002038B5354BE5
:104270001B6843B94FF0500383F31188BFF36F8F6E
:10428000BFF34F8FFEE7FFF7DDFA2E4B1A68013AB6
:104290001A601B68002B4FD12B4B1B680BB90024F5
:1042A0004BE00024294B1B681BB3284BDB68DC6800
:1042B00004F11800FFF75BFA251D2846FFF757FAAF
:1042C000E06A01238340224A11680B43136000EB2C
:1042D000800029461F4B03EB8000FFF724FAE26AB7
:1042E0001D4B1B68DB6A9A42DCD31C4B01221A600F
:1042F000D8E70CB1FFF7B2FC194B1C6884B9174B17
:104300001C68D4B14FF0E0234FF08052C3F8042D65
:10431000BFF34F8FBFF36F8F01240EE0013C07D036
:10432000FFF718FF0028F9D00C4B01221A60F5E7BF
:104330000B4B00221A60E2E70024FFF7A5FA2046A3
:1043400038BD00BF5818002080180020B018002089
:1043500078180020F4180020801900206C18002024
:104360007018002010B5A8B10446104B1B6843B16B
:104370004FF0500383F31188BFF36F8FBFF34F8F5C
:10438000FEE7FFF7DFFE00212046FFF7DDFDFFF728
:104390006DFF48B94FF0E0234FF08052C3F8042D71
:1043A000BFF34F8FBFF36F8F10BD00BF58180020B1
:1043B000224B1B681BB1224B01221A607047204B15
:1043C00000221A601F4B1B68B3FA83F3DBB2C3F100
:1043D0001F0303EB83018A001B498A5842B94FF03F
:1043E000500383F31188BFF36F8FBFF34F8FFEE746
:1043F000154803EB83018A00024451684968516003
:1044000003EB830C4FEA8C020832024491420DD038
:1044100003EB83039A000C4B13445B68DA680B4B85
:104420001A601B6850330A4A136070474868624636
:104430009100054A0A445060EAE700BF581800207E
:104440006C18002078180020F41800208019002033
:104450001C00002008B54FF4FA60FFF74FF944F252
:10446000FF5000F069F84FF4206000F0ABF800F066
:104470009DF8084B186000F00DF9074B186000F02C
:10448000DBF8064B18600A20FFF738F90120FFF728
:1044900035F9ECE70C0B0020080B0020040B002082
:1044A00008B54FF400510548FDF752FB4FF49670E4
:1044B000FFF724F90120FFF721F9F2E7001001408E
:1044C00080B584B04FF47A70FFF718F944F2FF50CA
:1044D00000F032F84FF4206000F074F800F066F855
:1044E000114D286000F0D6F8104E306000F0A4F8AE
:1044F00004460F4B18603068FCF722F806460F465A
:104500002868FCF71DF8CDE902012046FCF718F8F1
:10451000CDE9000132463B46064800F0CBF80120C9
:10452000FFF7ECF8DAE700BF0C0B0020080B0020C7
:10453000040B0020F8A8000800B585B000238DF812
:104540000C30030A8DF80D308DF80E000A2300930D
:10455000032303AA80210348FDF73EFE05B05DF862
:1045600004FB00BFB00A002070B584B002258DF8AE
:104570000C500D4C0A260096012303AA80212046E8
:10458000FDF72AFE00962B4602AA80212046FDF761
:10459000DFFE38B99DF808309DF8090040EA032095
:1045A00004B070BDFF20FBE7B00A002008B5FFF79C
:1045B000DBFFFCF7D7F80249FBF7AAFD08BD00BFF7
:1045C0000AD7A33A00B585B005238DF80C30030A4D
:1045D0008DF80D308DF80E000A230093032303AAF3
:1045E00080210348FDF7F8FD05B05DF804FB00BF2E
:1045F000B00A002030B585B003238DF80C300D4C87
:104600000A250095012303AA80212046FDF7E4FD39
:104610000095022302AA80212046FDF799FE38B9B1
:104620009DF808309DF8090040EA032005B030BD30
:10463000FF20FBE7B00A002008B5FFF7DBFFFCF71F
:1046400091F80249FBF764FD08BD00BF0AD7A33B00
:1046500030B585B004238DF80C300D4C0A2500953B
:10466000012303AA80212046FDF7B6FD0095022311
:1046700002AA80212046FDF76BFE38B99DF808306C
:104680009DF8090040EA032005B030BDFF20FBE79C
:10469000B00A002008B5FFF7DBFF10F4004F05D18A
:1046A000FCF760F80249FBF733FD08BD0020F7E78F
:1046B00017B751390FB410B502AA52F8041B094BB1
:1046C0001A60094C204600F04DF982B2074B1A805F
:1046D000642321460648FEF79EFDBDE8104004B065
:1046E000704700BF881A0020881900208419002014
:1046F000E40B0020024A0349034800F0C9B800BF98
:1047000010000020956F0008200000200C4B41682D
:1047100010B59942044601D002F03CFCA168094B57
:10472000994202D0204602F035FCE168064B9942DE
:1047300004D02046BDE8104002F02CBC10BD00BFE4
:104740008C1A0020F41A00205C1B00202DE9F8438D
:1047500000250423304C314A3149DFF8C890DFF896
:10476000C880324F324E116004F15C0029460822A5
:10477000C4E90335C4E90055C4E90555A56065667B
:1047800000F00EF904F15800C4E90749C4E90987AB
:10479000E66200F00DFA274B2946082204F1C40016
:1047A0006367C4E91A55C4E91E552567C4F8CC509F
:1047B000C4F8805000F0F4F804F1680304F1C0007C
:1047C000C4F88430C4E92298C4E9247600F0F0F9F2
:1047D000194B294604F596700822C4F8DC30C4E968
:1047E0003455C4E93855C4F8D850C4F83451C4F825
:1047F000E85000F0D5F804F1D003C4E93D87C4F8CF
:10480000F09004F59470C4F8FC60C4F8EC30BDE896
:10481000F84300F0CDB900BF8C1A0020C41B002063
:10482000F5460008D5480008F9480008394900084D
:104830005D490008090001001200020010B504469D
:104840000A4800F0B9F9636B23B9094B094A1B68A0
:10485000626323B1BDE81040044800F0AFB9FFF730
:1048600075FFBDE81040014800F0A8B9D41B002036
:10487000C41B00200D470008014800F09DB900BF8F
:10488000D41B0020014800F099B900BFD41B0020C0
:104890002DE9F8434FF0000980460F461646D6E949
:1048A0000154013D10D4A389012B08D9B4F90E306D
:1048B000013304D021464046B84749EA0009013D8A
:1048C0006B1C04F16804EED13668002EE7D148462F
:1048D000BDE8F88310B50C46B1F90E1000F00EF9E2
:1048E000002803DB236D0344236510BDA38923F453
:1048F0008053A38110BD00BF2DE9F0410C46B1F9F2
:104900000C101F46CB05054616460BD421F48051EA
:10491000A1813B4632462846B4F90E10BDE8F0416D
:1049200000F002B9B4F90E100223002200F0D0F812
:10493000B4F90C10EAE700BF10B50C46B1F90E103F
:1049400000F0C6F8B4F90C30421C0EBF23F48053BB
:1049500043F480532065A38110BD00BFB1F90E1050
:1049600000F06EB88C4670B5044600256FF0004626
:104970001346094A9AB01068084A6946039262468B
:104980001995029605960094049400F041FD009B51
:104990001D701AB070BD00BF1C0000200802FFFF90
:1049A00070B5860747D0541E002A3ED00346CAB2CF
:1049B00001E0013C39D303F8012B9D07F9D1032C09
:1049C0002CD9CDB205EB05250F2C1A4605EB054574
:1049D00034D9A4F1100C2CF00F0603F1100EB644DC
:1049E0004FEA1C1CC2E90055C2E90255103272455B
:1049F000F8D10CF1010214F00C0F03EB021204F0D9
:104A00000F0C13D0ACF1040323F00303043313445D
:104A100042F8045B9342FBD10CF003042CB1C9B201
:104A20001C4403F8011BA342FBD170BD644613462E
:104A3000002CF4D1F9E703461446C0E7A446E1E7A9
:104A4000002238B5064D044608462A60FCF7B0FC43
:104A5000431C00D038BD2B68002BFBD0236038BD31
:104A6000C81B0020194B1B6883422ED0416C70B5C7
:104A7000054681B100268C593CB121462468284660
:104A800000F00AF9002CF8D1696C0436802EF2D1BE
:104A9000284600F001F9A96B11B1284600F0FCF896
:104AA0002C6C34B121462468284600F0F5F8002C1F
:104AB000F8D1E96C11B1284600F0EEF86B6B1BB130
:104AC0002846BDE87040184770BD70471C000020A4
:104AD00038B50C46114600228446074D20462A6010
:104AE0001A466446FCF76EFC431C00D038BD2B68A8
:104AF000002BFBD0236038BDC81B002038B50C4606
:104B0000114600228446074D20462A601A46644614
:104B1000FCF730FC431C00D038BD2B68002BFBD0C9
:104B2000236038BDC81B002038B50C461146002252
:104B30008446074D20462A601A466446FCF72AFC44
:104B4000431C00D038BD2B68002BFBD0236038BD40
:104B5000C81B0020014B1868704700BF1C000020D4
:104B600070B50F4B0F4DAB42A3EB050607D00024E9
:104B7000B61055F8043B01349847A642F9D805F021
:104B80005FFE094D094B5E1BAB424FEAA60606D0FD
:104B9000002455F8043B01349847A642F9D870BD6B
:104BA00024AD000824AD000824AD00082CAD000899
:104BB000704700BF704700BF704700BF704700BF1D
:104BC000024B13B1024800F005B870470000000026
:104BD00075720008002301461A46184602F01CBCF4
:104BE0002DE9F84306460820894602F057FB0546A2
:104BF000DFF89880304600F0FFFBD8F808305F6897
:104C000027F00307A7F11104A4EB09042C44B4FB1B
:104C1000F5F4013C05FB04F4A54208DC0021304614
:104C200002F016FBD8F808303B44984205D03046D5
:104C300000F0E8FB0020BDE8F8833046614202F056
:104C400007FB01300FD0124AD8F808303F1B47F05D
:104C500001075F60136830461B1B136000F0D2FB36
:104C60000120BDE8F8830021304602F0F1FAD8F8BF
:104C70000820831A0F2BDADD43F001035360054B44
:104C800003491B68C01A0860D1E700BF700100200B
:104C9000DC1B00206401002000297CD0F8B50C4604
:104CA000064600F0A9FB54F8043C764FA4F1080531
:104CB00023F001016818D7F808C04268844522F043
:104CC000030200F08380DB07426000EB020C33D468
:104CD00054F8084CDCF804302D1B2144AC6807F173
:104CE000080C644503F0010364D0D5F80CE0C4F867
:104CF0000CE0CEF80840002B00F0818041F0010369
:104D00006B600160B1F5007F22D20122CB08490916
:104D10008A40796801330A437A6057F8331007EB09
:104D2000C302083AC5E9021247F83350CD60304655
:104D3000BDE8F84000F066BBDCF80430DB072BD59B
:104D400041F00103B1F5007F44F8043C0160DCD37D
:104D5000B1F5206F4FEA512353D28B0903F139008B
:104D600003F13802C300F818FB580838984203D101
:104D700061E09B68984204D05A6822F003028A429C
:104D8000F7D8D868C5E9023085603046DD60BDE8F7
:104D9000F84000F037BB7047114407F1080C8368F6
:104DA00063453FD0C268DA60936041F001036B60F5
:104DB0006950A7E7002B5FD10A44D0E90213CB600A
:104DC000996042F001036B60AA50B0E70A44D9072A
:104DD00007D454F8083CED1A1A44D5E90213CB6005
:104DE000996042F001036B60274BBD601B689342E2
:104DF0009DD8264B30461968FFF7F2FE97E711441D
:104E0000CDE7142B08D9542B1DD80B0B03F16F00E1
:104E100003F16E02C300A6E703F15C0003F15B023D
:104E2000C300A0E741F00103C7E90455C5E902CC7E
:104E30006B6069507BE70121921001FA02F27968F8
:104E40000A437A609EE7B3F5AA7F06D8CB0B03F13D
:104E5000780003F17702C30085E740F25452934291
:104E600006D88B0C03F17D0003F17C02C3007AE7C6
:104E70004FF47E737E2276E741F001036B600160A0
:104E800055E700BF70010020680100200C1C0020C5
:104E90002DE9F04F01F10B05162D064683B024D8FD
:104EA000102900F2AD8000F0A7FA102518234FF06A
:104EB000020CB84F3B445C68A3F10802944200F036
:104EC0001D8130466368E268A16823F00303CA606D
:104ED000234491605A68083442F001025A6000F09D
:104EE00091FA204603B0BDE8F08F35F0070500F1D8
:104EF0008780A94200F2848000F07EFAB5F5FC7F3D
:104F0000C0F06F816B0A7FD0042B00F21E81AB09C9
:104F100003F1390C03F1380E4FEACC009D4F3844B1
:104F200044680838A04207D10DE0002AE16880F209
:104F3000DF80884207D00C46636823F003035A1BC6
:104F40000F2AF2DDF446DFF850823C69444500F058
:104F5000BC80636823F00309A9EB05030F2B00F362
:104F60004581002BC7E9048880F22F81B9F5007FC5
:104F7000D7F804E080F0C98001234FEAD9014FEA55
:104F80005919194403FA09F357F831204EEA030E70
:104F900007EBC103083BA260E360C7F804E047F8F1
:104FA0003140D46001204FEAAC039840704532D8BC
:104FB00010EA0E0F07D12CF0030C400010EA0E0F80
:104FC0000CF1040CF9D007EBCC0AD646E146DEF82A
:104FD0000C300BE059681C4621F003014A1B0F2AD4
:104FE000DB6800F3BF80002A80F2E2809E45F1D1A9
:104FF00009F1010919F0030F0EF1080EE7D11FE1C5
:105000000C23336000246CE74FF400704FF0400C29
:105010004FF03F0E82E7BC68636823F00309A9459F
:1050200003D3A9EB05030F2B52DC5C4B08201B6854
:1050300003F1100804EB0903009302F02FF9584A1A
:1050400083461368A844013305D008F1FF38804433
:10505000434203EA08084146304602F0F9F8B0F14D
:10506000FF3F82464E4A00F0DC8004EB0903834296
:1050700000F2D5804B4B0BF1FF3118684044844659
:10508000186040F0FB801AEA010F40F0F780D7F873
:1050900008A0C84448F00102CAF804205446424B14
:1050A0001968814238BF1860404B1968814238BF87
:1050B000186022F00308A845A8EB050301D30F2BC5
:1050C00006DC304600F09EF99CE7D7F804E069E77B
:1050D000621943F0010345F0010565603046BA608E
:1050E0000834536000F08EF9204603B0BDE8F08F1D
:1050F000A2683046D16023448A60EBE6DC68A342B4
:105100007FF4DFAE0CF1020C1DE7B9F5206F4FEA1A
:1051100059227DD3142A00F2118102F15C03DB00D5
:105120005B32F918FB580839994203D1ECE09B68CF
:10513000994204D05A6822F003024A45F7D8D96848
:10514000C4E902318C60DC602CE7142B6CD9542B41
:1051500000F2FD802B0B03F16F0C03F16E0E4FEA92
:10516000CC00DBE6D4F808C03046661945F00105EE
:105170006560CCF80C30C3F808C042F00103C7E901
:105180000466C6E902887360625000F03BF9083497
:10519000A7E600BF70010020780100200C1C002051
:1051A00064010020DC1B0020081C0020041C0020DF
:1051B00021444A68304642F001024A6054F8082F00
:1051C000D3609A6000F01EF98BE6A144D9F8043050
:1051D000304643F00103C9F8043000F013F90834F5
:1051E0007FE64FEAD50C05F1080362E6621943F049
:1051F000010145F0010565603046C7E90422C2E9B6
:105200000288516044F8093000F0FCF8083468E680
:105210004FEA991202F13903DB00383281E7BC42D0
:1052200024D0BC68626844E703F15C0C03F15B0EB8
:105230004FEACC0072E65AF80839534540F0D8805E
:105240001CF0030F0CF1FF3CF5D17B6823EA00034F
:105250007B60400098423FF6DEAE18B9DBE64000C6
:1052600009F104091842FAD0CC46ACE6614B0BF1C7
:10527000FF31186808EB000CC3F800C0106801305B
:1052800070D004EB0902AAEB020262441A601AF021
:105290000702CDE9002340D0C2F108029244D04475
:1052A00008EA01005A44121A02EA010B5946304634
:1052B00001F0CEFF421C019B71D0A0EB0A0000EB75
:1052C0000B08186848F001025844BC42C7F808A00F
:1052D0001860CAF804203FF4E1AEB9F10F0F44D9C9
:1052E0004FF0050C6168A9F10C0222F0070201F0F1
:1052F0000101114361600F2A04EB0201C1E901CCF5
:1053000055D8DAF80420C9E60120921000FA02F21A
:105310004EEA020EC7F804E012E70AEB08020A4060
:10532000ABEB020202EA010B5946304601F090FF56
:10533000431C019BC1D1DDF800B0C2E7542A18D844
:105340004FEA193202F16F03DB006E32E9E6B3F582
:10535000AA7F18D8EB0B03F1780C03F1770E4FEA14
:10536000CC00DBE5C2F800A091E70123CAF80430C5
:10537000A7E6B2F5AA7F25D84FEAD93202F1780321
:10538000DB007732CDE640F25452934225D8AB0C85
:1053900003F17D0C03F17C0E4FEACC00BEE5009AD0
:1053A0004FF0000B083A9044A8EB0A0889E7304612
:1053B00004F108010093FFF76FFC009BD7F808A0E9
:1053C00018689EE740F254539A420DD84FEA99422A
:1053D00002F17D03DB007C32A3E64FF47E704FF0D8
:1053E0007F0C4FF07E0E99E54FF47E737E2298E697
:1053F0007B682EE7DC1B00200148FFF7DDBB00BF08
:10540000CC1B00200148FFF7D9BB00BFCC1B0020FC
:105410002DE9F04FDDB00C4691460D910F93834678
:1054200001F012FF036818461A9301F091FF082259
:10543000189000212CA8FFF7B3FAA389180603D50A
:105440002369002B00F01587002300249E46CDE938
:105450003133002333AACDE91634DA4614464D46DB
:10546000CDE91BEE3092CDF864E0CDF880E0CDF8C8
:1054700074E0CDF828E0CDF848E02F466E4BD3F825
:10548000E46001F0DBFE0DF1B00C03463A465046F5
:1054900028A9CDF800C0B047002800F09F80C0F2D6
:1054A0009580289B252B01D00744E7E7B7EB05083B
:1054B000064640F0978000224FF0FF339346099351
:1054C0007B787E1C8DF897200B9299460136A9F1C6
:1054D00020035A2B00F2B280DFE813F0F302B00091
:1054E000B000EF02B000B000B000FD02B000B000AC
:1054F0006A003502B0002702D202B000CE025B0083
:105500005B005B005B005B005B005B005B005B00C3
:10551000B000B000B000B000B000B000B000280192
:10552000B000AA013E02280128012801B000B00005
:10553000B000B0003A02B000B000A802B000B00065
:10554000B000D001B000BC02B000B0008A06B000CC
:10555000B000B000B000B000B000B000B000280152
:10556000B000AA0101022801280128012B02010232
:105570007400B0006402B0005502AF066E02740001
:10558000B000D0017200AC06B000B000B206B000AE
:1055900072000022A9F1300316F8019B02EB82028F
:1055A00003EB4202A9F13003092BF5D90B928EE7E8
:1055B0000F9B53F8042B002A0B920F93C0F2B28179
:1055C000337882E733784BF0200B7EE70822002106
:1055D0002CA8FFF7E5F9012007444FE7B7EB0508D2
:1055E000064610D0329BC4E9005843443293319BA5
:1055F0000133072B319315DC08340A9B43440A938B
:10560000002E7FF458AF329B002B41F05E810D9B42
:105610009B8903F04003002B41F080830A985DB022
:10562000BDE8F08F50460D9930AA01F087FC0028A4
:10563000EDD133ACE1E700BF780500201096B9F159
:10564000000FE0D0012300228DF80C91069343ADAA
:105650008DF897200C93CDE913220E9209921192A6
:105660001BF0020302D00699023106911BF0840858
:10567000329E05D10B9906980F1A002F00F39B80DC
:105680006AB101226260319A013601320DF197014F
:10569000072A32963192216000F3D883083463B12F
:1056A00002236360319B0236013326AA072B329610
:1056B0003193226000F3BF830834B8F1800F00F00B
:1056C000BF82099B0C9A9F1A002F00F3F9821BF4EA
:1056D000807F40F01E820C9B25601E446360319BDE
:1056E00032960133072B319300F33F8308341BF0CC
:1056F000040F05D00B9B069A9D1A002D00F3B3836F
:10570000DDE90A3206998A42ACBF9B185B180A93FE
:10571000002E40F00883002331930E9B1BB15046AE
:105720000E99FFF7B9FA33AC109DA6E60F9B1096C1
:10573000073323F00703F3E802670F9327F00043D2
:105740001F931E964FF0FF32DDE91E01B24BCDE9EB
:105750001667FBF76BFB002840F0F484DDE91E01BF
:105760004FF0FF32AC4BFBF743FB002840F0EA84DC
:105770000022002330463946FBF730FB002840F07A
:10578000B2879DF8972000210320A44DA44B2BF055
:10579000800B0E910690B9F1470FD8BF1D46CDE999
:1057A000131109910C901191002A3FF459AF069BF7
:1057B0000133069354E7102F319A41F30D82DFF83D
:1057C00064C2214630460D9C2E46CDF854C0654635
:1057D000219304E0103F102F01F1080116DD102382
:1057E00001321030072ACDE931200D604B60F1DD28
:1057F0002146504630AA01F0A1FB002840F09B82D0
:10580000DDE93120103F102F33A9E8DC35460C4686
:105810000646219B013215993E44072ACDE93126DF
:105820002160676000F381869DF89720083427E7A0
:105830000F9BB9F1430F109603F1040603D01BF040
:10584000100F00F00185082200212EA8FFF7A8F80C
:105850000F9A43AD2EAB29465046126803F0E6F985
:10586000034601330C9001F054820C9B23EAE3734E
:10587000069300220F968DF89720ECE600230F9FE9
:10588000109657F8045B8DF89730002D00F00085D6
:10589000B9F1530F00F094861BF01003119340F000
:1058A0008F86099B002BC1F21B801A46284611994E
:1058B00001F002FD0E90002801F081820E9B1199EB
:1058C0005B1B0C9323EAE3734FF07309CDE91311CB
:1058D0009DF897200F97099106930E9164E71BF0AE
:1058E000200F10963ED00F9B073323F00703184676
:1058F000596850F8083B0A460F900029C0F2CA8345
:1059000009990029C0F2888253EA02012BF080072E
:1059100040F08382099A002A40F08482BB460C92B0
:105920005CAD64E10B9B5B420B9333784BF0040B53
:10593000CBE53378682B03BF73784BF4007B0136DB
:105940004BF0400BC1E52B238DF897303378BCE545
:1059500033784BF0080BB8E54BF0100B1BF0200F21
:105960001096C0D10F9A1BF0100F52F8043B0F9203
:1059700040F0C2831BF0400F00F0BA8343F3C03203
:1059800011461BB2B9E71BF0200F109600F0C5833B
:105990000F9B0A9A1B681A60D2175A600F9B043338
:1059A0000F93C1E633786C2B03BF73784BF0200B59
:1059B00001364BF0100B88E547F630030F9AADF82F
:1059C000983052F8043B02210F924FF078090022E0
:1059D000154810964BF0020719900020099D8DF88C
:1059E0009700002DC0F2EC8053EA020027F0800BF4
:1059F00040F0E580002D40F0D285002940F053832F
:105A000017F001030C9300F0718330230DF26F1532
:105A10008DF86F31EBE000BFFFFFEF7F08A90008B2
:105A200004A90008E8AA000814A9000810964BF081
:105A3000100B1BF0200200F012830F9B073323F0A2
:105A4000070319465A6851F8083B0F9100212BF4BF
:105A50008067C2E710964BF0100717F0200200F0A5
:105A60000B830F9B0121073323F0070318465A6865
:105A700050F8083B0F90B0E733784BF0800B24E5EB
:105A8000314611F8019BB9F12A0F01F02882A9F1E2
:105A90003003092B98BF002201F2A28011F8019B6C
:105AA00002EB820203EB4202A9F13003092BF5D984
:105AB00042EAE2730E46099309E533784BF0010B95
:105AC00003E59DF897203378002A7FF4FEAC20226E
:105AD0008DF89720F9E4504601F0B6FB436818466C
